{"contracts/ProxyVotingFHE.sol":{"ProxyVotingFHE":{"abi":[{"inputs":[],"stateMutability":"nonpayable","type":"constructor"},{"inputs":[{"internalType":"address","name":"owner","type":"address"}],"name":"OwnableInvalidOwner","type":"error"},{"inputs":[{"internalType":"address","name":"account","type":"address"}],"name":"OwnableUnauthorizedAccount","type":"error"},{"inputs":[],"name":"ReentrancyGuardReentrantCall","type":"error"},{"anonymous":false,"inputs":[{"indexed":true,"internalType":"uint256","name":"proposalId","type":"uint256"},{"indexed":true,"internalType":"uint256","name":"requestId","type":"uint256"},{"indexed":false,"internalType":"uint256","name":"yesVotes","type":"uint256"},{"indexed":false,"internalType":"uint256","name":"noVotes","type":"uint256"}],"name":"DecryptionCompleted","type":"event"},{"anonymous":false,"inputs":[{"indexed":true,"internalType":"uint256","name":"proposalId","type":"uint256"},{"indexed":true,"internalType":"uint256","name":"requestId","type":"uint256"},{"indexed":false,"internalType":"string","name":"reason","type":"string"}],"name":"DecryptionFailed","type":"event"},{"anonymous":false,"inputs":[{"indexed":true,"internalType":"uint256","name":"proposalId","type":"uint256"},{"indexed":true,"internalType":"uint256","name":"requestId","type":"uint256"},{"indexed":false,"internalType":"uint256","name":"timestamp","type":"uint256"}],"name":"DecryptionRequested","type":"event"},{"anonymous":false,"inputs":[{"indexed":true,"internalType":"address","name":"delegator","type":"address"},{"indexed":false,"internalType":"uint256","name":"weight","type":"uint256"}],"name":"DelegationRevoked","type":"event"},{"anonymous":false,"inputs":[{"indexed":true,"internalType":"address","name":"delegator","type":"address"},{"indexed":true,"internalType":"address","name":"delegate","type":"address"},{"indexed":false,"internalType":"uint256","name":"weight","type":"uint256"}],"name":"DelegationSet","type":"event"},{"anonymous":false,"inputs":[{"indexed":true,"internalType":"address","name":"previousOwner","type":"address"},{"indexed":true,"internalType":"address","name":"newOwner","type":"address"}],"name":"OwnershipTransferred","type":"event"},{"anonymous":false,"inputs":[{"indexed":true,"internalType":"uint256","name":"proposalId","type":"uint256"},{"indexed":false,"internalType":"string","name":"description","type":"string"},{"indexed":false,"internalType":"uint256","name":"deadline","type":"uint256"}],"name":"ProposalCreated","type":"event"},{"anonymous":false,"inputs":[{"indexed":true,"internalType":"uint256","name":"proposalId","type":"uint256"},{"indexed":true,"internalType":"address","name":"voter","type":"address"},{"indexed":false,"internalType":"uint256","name":"amount","type":"uint256"}],"name":"RefundIssued","type":"event"},{"anonymous":false,"inputs":[{"indexed":true,"internalType":"uint256","name":"proposalId","type":"uint256"},{"indexed":true,"internalType":"address","name":"voter","type":"address"},{"indexed":false,"internalType":"bool","name":"isYes","type":"bool"},{"indexed":false,"internalType":"uint256","name":"weight","type":"uint256"}],"name":"VoteCast","type":"event"},{"anonymous":false,"inputs":[{"indexed":true,"internalType":"address","name":"voter","type":"address"},{"indexed":false,"internalType":"uint256","name":"votingPower","type":"uint256"}],"name":"VoterRegistered","type":"event"},{"inputs":[],"name":"DECRYPTION_TIMEOUT","outputs":[{"internalType":"uint256","name":"","type":"uint256"}],"stateMutability":"view","type":"function"},{"inputs":[],"name":"MAX_VOTING_POWER","outputs":[{"internalType":"uint256","name":"","type":"uint256"}],"stateMutability":"view","type":"function"},{"inputs":[],"name":"VOTING_PERIOD","outputs":[{"internalType":"uint256","name":"","type":"uint256"}],"stateMutability":"view","type":"function"},{"inputs":[{"internalType":"uint256","name":"proposalId","type":"uint256"}],"name":"claimRefund","outputs":[],"stateMutability":"nonpayable","type":"function"},{"inputs":[{"internalType":"uint256","name":"proposalId","type":"uint256"}],"name":"closeProposal","outputs":[],"stateMutability":"nonpayable","type":"function"},{"inputs":[{"internalType":"string","name":"description","type":"string"}],"name":"createProposal","outputs":[{"internalType":"uint256","name":"","type":"uint256"}],"stateMutability":"nonpayable","type":"function"},{"inputs":[{"internalType":"uint256","name":"requestId","type":"uint256"},{"internalType":"uint256","name":"yesVotes","type":"uint256"},{"internalType":"uint256","name":"noVotes","type":"uint256"},{"internalType":"bytes","name":"","type":"bytes"}],"name":"decryptionCallback","outputs":[],"stateMutability":"nonpayable","type":"function"},{"inputs":[{"internalType":"address","name":"delegate","type":"address"}],"name":"delegateVote","outputs":[],"stateMutability":"nonpayable","type":"function"},{"inputs":[{"internalType":"address","name":"","type":"address"}],"name":"delegations","outputs":[{"internalType":"address","name":"delegate","type":"address"},{"internalType":"bool","name":"active","type":"bool"},{"internalType":"uint256","name":"weight","type":"uint256"}],"stateMutability":"view","type":"function"},{"inputs":[{"internalType":"uint256","name":"proposalId","type":"uint256"}],"name":"getDecryptionStatus","outputs":[{"internalType":"bool","name":"requested","type":"bool"},{"internalType":"bool","name":"failed","type":"bool"},{"internalType":"uint256","name":"requestTime","type":"uint256"},{"internalType":"uint256","name":"requestId","type":"uint256"}],"stateMutability":"view","type":"function"},{"inputs":[{"internalType":"address","name":"voter","type":"address"}],"name":"getDelegation","outputs":[{"internalType":"address","name":"delegate","type":"address"},{"internalType":"bool","name":"active","type":"bool"}],"stateMutability":"view","type":"function"},{"inputs":[{"internalType":"uint256","name":"proposalId","type":"uint256"}],"name":"getEncryptedVotes","outputs":[{"internalType":"bytes32","name":"encryptedYes","type":"bytes32"},{"internalType":"bytes32","name":"encryptedNo","type":"bytes32"}],"stateMutability":"view","type":"function"},{"inputs":[{"internalType":"uint256","name":"proposalId","type":"uint256"}],"name":"getProposal","outputs":[{"internalType":"string","name":"description","type":"string"},{"internalType":"uint256","name":"deadline","type":"uint256"},{"internalType":"bool","name":"active","type":"bool"}],"stateMutability":"view","type":"function"},{"inputs":[{"internalType":"uint256","name":"proposalId","type":"uint256"},{"internalType":"bytes32","name":"","type":"bytes32"},{"internalType":"bytes","name":"","type":"bytes"}],"name":"getProposalResults","outputs":[{"internalType":"uint32","name":"yesVotes","type":"uint32"},{"internalType":"uint32","name":"noVotes","type":"uint32"}],"stateMutability":"view","type":"function"},{"inputs":[{"internalType":"uint256","name":"proposalId","type":"uint256"},{"internalType":"address","name":"voter","type":"address"}],"name":"hasVoted","outputs":[{"internalType":"bool","name":"","type":"bool"}],"stateMutability":"view","type":"function"},{"inputs":[{"internalType":"address","name":"","type":"address"}],"name":"isRegisteredVoter","outputs":[{"internalType":"bool","name":"","type":"bool"}],"stateMutability":"view","type":"function"},{"inputs":[{"internalType":"uint256","name":"proposalId","type":"uint256"}],"name":"markDecryptionFailed","outputs":[],"stateMutability":"nonpayable","type":"function"},{"inputs":[],"name":"owner","outputs":[{"internalType":"address","name":"","type":"address"}],"stateMutability":"view","type":"function"},{"inputs":[],"name":"proposalCount","outputs":[{"internalType":"uint256","name":"","type":"uint256"}],"stateMutability":"view","type":"function"},{"inputs":[{"internalType":"uint256","name":"","type":"uint256"}],"name":"proposals","outputs":[{"internalType":"string","name":"description","type":"string"},{"internalType":"bytes32","name":"encryptedYesVotes","type":"bytes32"},{"internalType":"bytes32","name":"encryptedNoVotes","type":"bytes32"},{"internalType":"uint256","name":"deadline","type":"uint256"},{"internalType":"bool","name":"active","type":"bool"},{"internalType":"bool","name":"decryptionRequested","type":"bool"},{"internalType":"bool","name":"decryptionFailed","type":"bool"},{"internalType":"uint256","name":"decryptionRequestTime","type":"uint256"},{"internalType":"uint256","name":"decryptionRequestId","type":"uint256"}],"stateMutability":"view","type":"function"},{"inputs":[{"internalType":"address","name":"voter","type":"address"}],"name":"registerVoter","outputs":[],"stateMutability":"nonpayable","type":"function"},{"inputs":[],"name":"renounceOwnership","outputs":[],"stateMutability":"nonpayable","type":"function"},{"inputs":[{"internalType":"uint256","name":"proposalId","type":"uint256"}],"name":"requestDecryption","outputs":[{"internalType":"uint256","name":"requestId","type":"uint256"}],"stateMutability":"nonpayable","type":"function"},{"inputs":[],"name":"revokeDelegation","outputs":[],"stateMutability":"nonpayable","type":"function"},{"inputs":[{"internalType":"address","name":"newOwner","type":"address"}],"name":"transferOwnership","outputs":[],"stateMutability":"nonpayable","type":"function"},{"inputs":[{"internalType":"uint256","name":"proposalId","type":"uint256"},{"internalType":"bool","name":"isYes","type":"bool"},{"internalType":"bytes","name":"","type":"bytes"}],"name":"vote","outputs":[],"stateMutability":"nonpayable","type":"function"},{"inputs":[{"internalType":"address","name":"","type":"address"}],"name":"votingPower","outputs":[{"internalType":"uint256","name":"","type":"uint256"}],"stateMutability":"view","type":"function"}],"evm":{"bytecode":{"linkReferences":{},"object":"60806040523480156200001157600080fd5b50338062000040576000604051631e4fbdf760e01b8152600401620000379190620000f2565b60405180910390fd5b6200004b816200007e565b50600180805533600090815260046020908152604080832084905560059091529020805460ff1916909117905562000102565b600080546001600160a01b038381166001600160a01b0319831681178455604051919092169283917f8be0079c531659141344cd1fd0a4f28419497f9722a3daafe3b4186f6b6457e09190a35050565b60006001600160a01b0382165b92915050565b620000ec81620000ce565b82525050565b60208101620000db8284620000e1565b61264380620001126000396000f3fe608060405234801561001057600080fd5b50600436106101a95760003560e01c8063715018a6116100f9578063bffe348611610097578063da35c66411610071578063da35c6641461041e578063da36cffe14610427578063ef3cf0e91461044a578063f2fde38b1461046b57600080fd5b8063bffe348614610390578063c07473f6146103dc578063c7f758a8146103fc57600080fd5b8063a4d31805116100d3578063a4d3180514610348578063b1610d7e14610350578063b31e1d4d1461035a578063bea81fa91461036d57600080fd5b8063715018a61461031457806382e891971461031c5780638da5cb5b1461032f57600080fd5b80634093cebb116101665780635b7baf64116101405780635b7baf64146102d1578063644ddbfc146102e45780636e30bc9e146102f75780637097e18e1461030157600080fd5b80634093cebb1461028b578063438596321461029e57806349c2a1a6146102be57600080fd5b8063013cf08b146101ae5780630386a016146101df5780630f010058146101f4578063152439db146102155780632b2937681461023057806338db6dd314610278575b600080fd5b6101c16101bc366004611654565b61047e565b6040516101d6999897969594939291906116e3565b60405180910390f35b6101f26101ed366004611654565b61055a565b005b610207610202366004611654565b6105d7565b6040516101d692919061176e565b6102236001600160801b0381565b6040516101d69190611790565b61026a61023e3660046117c3565b6001600160a01b0390811660009081526003602052604090205490811691600160a01b90910460ff1690565b6040516101d69291906117ed565b6101f26102863660046117c3565b61061a565b6101f261029936600461185a565b6106ee565b6102b16102ac3660046118de565b610850565b6040516101d6919061191b565b6102236102cc366004611929565b610880565b6101f26102df366004611654565b6109f1565b6101f26102f2366004611654565b610ae1565b6102236201518081565b6101f261030f366004611984565b610c17565b6101f2610edb565b61022361032a366004611654565b610eef565b6000546001600160a01b03166040516101d691906119f2565b6101f261102c565b61022362093a8081565b6101f26103683660046117c3565b6110e7565b61038061037b366004611654565b6112e9565b6040516101d69493929190611a00565b6103cd61039e3660046117c3565b600360205260009081526040902080546001909101546001600160a01b03821691600160a01b900460ff169083565b6040516101d693929190611a3e565b6102236103ea3660046117c3565b60046020526000908152604090205481565b61040f61040a366004611654565b611348565b6040516101d693929190611a66565b61022360075481565b6102b16104353660046117c3565b60056020526000908152604090205460ff1681565b61045d610458366004611a93565b611428565b6040516101d6929190611ad5565b6101f26104793660046117c3565b6114a8565b60026020526000908152604090208054819061049990611b06565b80601f01602080910402602001604051908101604052809291908181526020018280546104c590611b06565b80156105125780601f106104e757610100808354040283529160200191610512565b820191906000526020600020905b8154815290600101906020018083116104f557829003601f168201915b505050600184015460028501546003860154600487015460058801546006909801549697939692955090935060ff808216936101008304821693620100009093049091169189565b6105626114e3565b600754811061058c5760405162461bcd60e51b815260040161058390611b5c565b60405180910390fd5b60008181526002602052604090206003015442116105bc5760405162461bcd60e51b815260040161058390611b94565b6000908152600260205260409020600401805460ff19169055565b60008060075483106105fb5760405162461bcd60e51b815260040161058390611b5c565b5050600090815260026020819052604090912060018101549101549091565b6106226114e3565b6001600160a01b0381166106485760405162461bcd60e51b815260040161058390611bce565b6001600160a01b03811660009081526005602052604090205460ff16156106815760405162461bcd60e51b815260040161058390611c10565b6001600160a01b0381166000818152600560209081526040808320805460ff1916600190811790915560049092529182902081905590517ff16ce2c2236e2c6e3df646f80d657bceef4cd7f3a240c47e82adfa17a5f47241916106e391611c38565b60405180910390a250565b600085815260066020526040902054600754811061071e5760405162461bcd60e51b815260040161058390611c6d565b60008181526002602052604090206004810154610100900460ff166107555760405162461bcd60e51b815260040161058390611caf565b868160060154146107785760405162461bcd60e51b815260040161058390611ce7565b600481015462010000900460ff16156107a35760405162461bcd60e51b815260040161058390611d29565b60008281526008602052604090205486146107d05760405162461bcd60e51b815260040161058390611d60565b60008281526009602052604090205485146107fd5760405162461bcd60e51b815260040161058390611d96565b60048101805460ff19169055604051879083907f60a5261a8de6f00d7bf40f51cf2b023425bc668db5e9bc89db8c104706efbc319061083f908a908a9061176e565b60405180910390a350505050505050565b60008281526002602090815260408083206001600160a01b038516845260070190915290205460ff165b92915050565b600061088a6114e3565b816108a75760405162461bcd60e51b815260040161058390611dd8565b6104008211156108c95760405162461bcd60e51b815260040161058390611e11565b60078054600091826108da83611e37565b909155506000818152600260205260409020909150806108fb858783611efb565b50814260405160200161090f929190611fc6565b60408051601f19818403018152908290528051602091820120600184015561093b918491429101612001565b60408051601f198184030181529190528051602090910120600282015561096562093a804261201d565b6003820190815560048201805462ffffff19166001179055600060058301819055600683018190558381526008602090815260408083208390556009909152808220919091559054905183917ff5dc0da9afa6d080780a49fd8c680f03d2ddf3c067cd6d0c85360c096644d2d3916109e191899189919061205c565b60405180910390a2509392505050565b6109f9611510565b6007548110610a1a5760405162461bcd60e51b815260040161058390611b5c565b6000818152600260205260409020600481015462010000900460ff16610a525760405162461bcd60e51b8152600401610583906120a7565b33600090815260078201602052604090205460ff16610a835760405162461bcd60e51b8152600401610583906120e9565b336000818152600783016020526040808220805460ff191690555184917f7a482fdeb6bc9a1376f597068a214a7a39472bb2eff1b8cad21ba04f49ddca1b91610acc9190611c38565b60405180910390a350610ade60018055565b50565b6007548110610b025760405162461bcd60e51b815260040161058390611b5c565b60008181526002602052604090206004810154610100900460ff16610b395760405162461bcd60e51b815260040161058390611caf565b600481015460ff1615610b5e5760405162461bcd60e51b815260040161058390612123565b6000620151808260050154610b73919061201d565b4210159050610b8a6000546001600160a01b031690565b6001600160a01b0316336001600160a01b03161480610ba65750805b610bc25760405162461bcd60e51b815260040161058390612165565b60048201805462ff0000191662010000179055600682015460405184907f8b2808dbe440ff36b9c3f43dfca588a3ffeb2af2ef2d67aad297f32284ad4c0e90610c0a906121a7565b60405180910390a3505050565b3360009081526005602052604090205460ff16610c465760405162461bcd60e51b8152600401610583906121e2565b836007548110610c685760405162461bcd60e51b815260040161058390611b5c565b60008181526002602052604090206004015460ff16610c995760405162461bcd60e51b81526004016105839061221a565b600081815260026020526040902060030154421115610cca5760405162461bcd60e51b815260040161058390612252565b600085815260026020908152604080832033845260070190915290205460ff1615610d075760405162461bcd60e51b815260040161058390612284565b33600090815260036020526040902054600160a01b900460ff1615610d3e5760405162461bcd60e51b8152600401610583906122d7565b60008581526002602090815260408083203384526007018252808320805460ff19166001179055600490915290205480610d8a5760405162461bcd60e51b81526004016105839061230b565b60008681526002602090815260408083209051909291610db091429133918c9101612343565b6040516020818303038152906040528051906020012060001c90508615610e315760008881526008602052604081208054859290610def90849061201d565b90915550506001820154604051610e0f9190339086908590602001612371565b60408051601f1981840301815291905280516020909101206001830155610e8d565b60008881526009602052604081208054859290610e4f90849061201d565b90915550506002820154604051610e6f9190339086908590602001612371565b60408051601f19818403018152919052805160209091012060028301555b336001600160a01b0316887fcbdf6214089cba887ecbf35a0b6a734589959c9763342c756bb2a80ca2bc9f6e8986604051610ec99291906123ad565b60405180910390a35050505050505050565b610ee36114e3565b610eed600061153a565b565b6000610ef96114e3565b6007548210610f1a5760405162461bcd60e51b815260040161058390611b5c565b6000828152600260205260409020600301544211610f4a5760405162461bcd60e51b815260040161058390611b94565b600082815260026020526040902060040154610100900460ff1615610f815760405162461bcd60e51b8152600401610583906123ed565b6000828152600260209081526040918290209151610fa591859142913391016123fd565b60408051601f19818403018152828252805160209182012060048501805461ff0019166101001790554260058601819055600680870183905560008381529352929091208690559350839185917f5e0bb1b708f1f76775812e0c51d4f8893968e6bf1a6776e92e97da11615342f39161101e9190611790565b60405180910390a350919050565b3360009081526005602052604090205460ff1661105b5760405162461bcd60e51b8152600401610583906121e2565b33600090815260036020526040902054600160a01b900460ff166110915760405162461bcd60e51b815260040161058390612454565b33600081815260036020526040902060010154906110ae9061158a565b336001600160a01b03167fb4dff15dd795ddc2a73efb1f0245539fe1a46b50cfd29f8c7bfe8f2f810877c8826040516106e39190611790565b3360009081526005602052604090205460ff166111165760405162461bcd60e51b8152600401610583906121e2565b6001600160a01b03811661113c5760405162461bcd60e51b815260040161058390612496565b336001600160a01b038216036111645760405162461bcd60e51b8152600401610583906124d8565b6001600160a01b03811660009081526005602052604090205460ff1661119c5760405162461bcd60e51b815260040161058390612524565b33600090815260046020526040902054806111c95760405162461bcd60e51b815260040161058390612566565b33600090815260036020526040902054600160a01b900460ff16156111f1576111f13361158a565b6001600160a01b03821660009081526004602052604081205461121590839061201d565b90506001600160801b0381111561123e5760405162461bcd60e51b8152600401610583906125a8565b604080516060810182526001600160a01b0380861680835260016020808501828152858701898152336000818152600385528981209851895494511515600160a01b026001600160a81b031990951698169790971792909217875551959092019490945581835260049093528382208590558282528382209190915591517f4c12853beeb24ebde5f5b6f8757d257670bd10e740c1d43baa60c5ed7090fa5890610c0a908690611790565b60008060008060075485106113105760405162461bcd60e51b815260040161058390611b5c565b5050506000918252506002602052604090206004810154600582015460069092015460ff610100830481169462010000909304169291565b6060600080600754841061136e5760405162461bcd60e51b815260040161058390611b5c565b600084815260026020526040902060038101546004820154825483929160ff1690839061139a90611b06565b80601f01602080910402602001604051908101604052809291908181526020018280546113c690611b06565b80156114135780601f106113e857610100808354040283529160200191611413565b820191906000526020600020905b8154815290600101906020018083116113f657829003601f168201915b50505050509250935093509350509193909250565b6000806114336114e3565b60075486106114545760405162461bcd60e51b815260040161058390611b5c565b60008681526002602052604090206003015442116114845760405162461bcd60e51b815260040161058390611b94565b50505060009283525050600860209081526040808320546009909252909120549091565b6114b06114e3565b6001600160a01b0381166114da576000604051631e4fbdf760e01b815260040161058391906119f2565b610ade8161153a565b6000546001600160a01b03163314610eed573360405163118cdaa760e01b815260040161058391906119f2565b60026001540361153357604051633ee5aeb560e01b815260040160405180910390fd5b6002600155565b600080546001600160a01b038381166001600160a01b0319831681178455604051919092169283917f8be0079c531659141344cd1fd0a4f28419497f9722a3daafe3b4186f6b6457e09190a35050565b6001600160a01b0380821660009081526003602090815260408083208054600182015495168085526004909352922054919290918111156115dd5760405162461bcd60e51b8152600401610583906125ea565b6001600160a01b038216600090815260046020526040812080548392906116059084906125fa565b90915550506001600160a01b039093166000908152600460205260408120939093555080546001600160a81b031916815560010155565b805b8114610ade57600080fd5b803561087a8161163c565b60006020828403121561166957611669600080fd5b60006116758484611649565b949350505050565b60005b83811015611698578181015183820152602001611680565b50506000910152565b60006116ab825190565b8084526020840193506116c281856020860161167d565b601f01601f19169290920192915050565b805b82525050565b8015156116d5565b61012080825281016116f5818c6116a1565b9050611704602083018b6116d3565b611711604083018a6116d3565b61171e60608301896116d3565b61172b60808301886116db565b61173860a08301876116db565b61174560c08301866116db565b61175260e08301856116d3565b6117606101008301846116d3565b9a9950505050505050505050565b6040810161177c82856116d3565b61178960208301846116d3565b9392505050565b6020810161087a82846116d3565b60006001600160a01b03821661087a565b61163e8161179e565b803561087a816117af565b6000602082840312156117d8576117d8600080fd5b600061167584846117b8565b6116d58161179e565b604081016117fb82856117e4565b61178960208301846116db565b60008083601f84011261181d5761181d600080fd5b50813567ffffffffffffffff81111561183857611838600080fd5b60208301915083600182028301111561185357611853600080fd5b9250929050565b60008060008060006080868803121561187557611875600080fd5b60006118818888611649565b955050602061189288828901611649565b94505060406118a388828901611649565b935050606086013567ffffffffffffffff8111156118c3576118c3600080fd5b6118cf88828901611808565b92509250509295509295909350565b600080604083850312156118f4576118f4600080fd5b60006119008585611649565b9250506020611911858286016117b8565b9150509250929050565b6020810161087a82846116db565b6000806020838503121561193f5761193f600080fd5b823567ffffffffffffffff81111561195957611959600080fd5b61196585828601611808565b92509250509250929050565b80151561163e565b803561087a81611971565b6000806000806060858703121561199d5761199d600080fd5b60006119a98787611649565b94505060206119ba87828801611979565b935050604085013567ffffffffffffffff8111156119da576119da600080fd5b6119e687828801611808565b95989497509550505050565b6020810161087a82846117e4565b60808101611a0e82876116db565b611a1b60208301866116db565b611a2860408301856116d3565b611a3560608301846116d3565b95945050505050565b60608101611a4c82866117e4565b611a5960208301856116db565b61167560408301846116d3565b60608082528101611a7781866116a1565b9050611a8660208301856116d3565b61167560408301846116db565b60008060008060608587031215611aac57611aac600080fd5b6000611ab88787611649565b94505060206119ba87828801611649565b63ffffffff81166116d5565b60408101611ae38285611ac9565b6117896020830184611ac9565b634e487b7160e01b600052602260045260246000fd5b600281046001821680611b1a57607f821691505b602082108103611b2c57611b2c611af0565b50919050565b601381526020810172125b9d985b1a59081c1c9bdc1bdcd85b081251606a1b815290505b60200190565b6020808252810161087a81611b32565b601381526020810172566f74696e67207374696c6c2061637469766560681b81529050611b56565b6020808252810161087a81611b6c565b601581526020810174496e76616c696420766f746572206164647265737360581b81529050611b56565b6020808252810161087a81611ba4565b60188152602081017f566f74657220616c72656164792072656769737465726564000000000000000081529050611b56565b6020808252810161087a81611bde565b600061087a611c2c8381565b90565b6116d581611c20565b6020810161087a8284611c2f565b601281526020810171125b9d985b1a59081c995c5d595cdd08125160721b81529050611b56565b6020808252810161087a81611c46565b60178152602081017f4e6f2064656372797074696f6e2072657175657374656400000000000000000081529050611b56565b6020808252810161087a81611c7d565b6013815260208101720a4cae2eacae6e840928840dad2e6dac2e8c6d606b1b81529050611b56565b6020808252810161087a81611cbf565b60198152602081017f44656372797074696f6e20616c7265616479206661696c65640000000000000081529050611b56565b6020808252810161087a81611cf7565b6012815260208101710b2cae640ecdee8cae640dad2e6dac2e8c6d60731b81529050611b56565b6020808252810161087a81611d39565b60118152602081017009cde40ecdee8cae640dad2e6dac2e8c6d607b1b81529050611b56565b6020808252810161087a81611d70565b601b8152602081017f4465736372697074696f6e2063616e6e6f7420626520656d707479000000000081529050611b56565b6020808252810161087a81611da6565b6014815260208101734465736372697074696f6e20746f6f206c6f6e6760601b81529050611b56565b6020808252810161087a81611de8565b634e487b7160e01b600052601160045260246000fd5b600060018201611e4957611e49611e21565b5060010190565b634e487b7160e01b600052604160045260246000fd5b611e6f83611c20565b815460001960089490940293841b1916921b91909117905550565b6000611e97818484611e66565b505050565b81811015611eb757611eaf600082611e8a565b600101611e9c565b5050565b601f821115611e97576000818152602090206020601f85010481016020851015611ee25750805b611ef46020601f860104830182611e9c565b5050505050565b8267ffffffffffffffff811115611f1457611f14611e50565b611f1e8254611b06565b611f29828285611ebb565b506000601f821160018114611f5e5760008315611f465750848201355b600019600885021c1981166002850217855550611fb8565b600084815260209020601f19841690835b82811015611f8f5787850135825560209485019460019092019101611f6f565b5084821015611fac57600019601f86166008021c19848801351681555b50506001600284020184555b505050505050565b806116d5565b6d656e637279707465645f7965735f60901b8152600e81015b9050611feb8184611fc0565b602001611ff88183611fc0565b60200192915050565b6c656e637279707465645f6e6f5f60981b8152600d8101611fdf565b8082018082111561087a5761087a611e21565b82818337506000910152565b818352602083019250612050828483612030565b50601f01601f19160190565b6040808252810161206e81858761203c565b905061167560208301846116d3565b601581526020810174111958dc9e5c1d1a5bdb881b9bdd0819985a5b1959605a1b81529050611b56565b6020808252810161087a8161207d565b601d8152602081017f446964206e6f7420766f7465206f6e20746869732070726f706f73616c00000081529050611b56565b6020808252810161087a816120b7565b60158152602081017450726f706f73616c207374696c6c2061637469766560581b81529050611b56565b6020808252810161087a816120f9565b601b8152602081017f4f6e6c79206f776e6572206f722061667465722074696d656f7574000000000081529050611b56565b6020808252810161087a81612133565b60198152602081017f54696d656f7574206f72206d616e75616c206661696c7572650000000000000081529050611b56565b6020808252810161087a81612175565b6016815260208101752737ba1030903932b3b4b9ba32b932b2103b37ba32b960511b81529050611b56565b6020808252810161087a816121b7565b60138152602081017250726f706f73616c206e6f742061637469766560681b81529050611b56565b6020808252810161087a816121f2565b601381526020810172159bdd1a5b99c81c195c9a5bd908195b991959606a1b81529050611b56565b6020808252810161087a8161222a565b600d8152602081016c105b1c9958591e481d9bdd1959609a1b81529050611b56565b6020808252810161087a81612262565b60268152602081017f43616e6e6f7420766f7465207768696c652064656c65676174696f6e2069732081526561637469766560d01b602082015290505b60400190565b6020808252810161087a81612294565b600f8152602081016e2737903b37ba34b733903837bbb2b960891b81529050611b56565b6020808252810161087a816122e7565b600061087a8260601b90565b600061087a8261231b565b6116d561233e8261179e565b612327565b61234d8185611fc0565b60200161235a8184612332565b6014016123678183611fc0565b6020019392505050565b61237b8186611fc0565b6020016123888185612332565b6014016123958184611fc0565b6020016123a28183611fc0565b602001949350505050565b6040810161177c82856116db565b601c8152602081017f44656372797074696f6e20616c7265616479207265717565737465640000000081529050611b56565b6020808252810161087a816123bb565b6124078185611fc0565b6020016124148184611fc0565b6020016124218183612332565b6014019392505050565b60148152602081017327379030b1ba34bb32903232b632b3b0ba34b7b760611b81529050611b56565b6020808252810161087a8161242b565b60188152602081017f496e76616c69642064656c65676174652061646472657373000000000000000081529050611b56565b6020808252810161087a81612464565b601b8152602081017f43616e6e6f742064656c656761746520746f20796f757273656c66000000000081529050611b56565b6020808252810161087a816124a6565b60218152602081017f44656c6567617465206d757374206265207265676973746572656420766f74658152603960f91b602082015290506122d1565b6020808252810161087a816124e8565b601b8152602081017f4e6f20766f74696e6720706f77657220746f2064656c6567617465000000000081529050611b56565b6020808252810161087a81612534565b60178152602081017f44656c656761746520706f776572206f766572666c6f7700000000000000000081529050611b56565b6020808252810161087a81612576565b60188152602081017f44656c656761746520706f77657220756e646572666c6f77000000000000000081529050611b56565b6020808252810161087a816125b8565b8181038181111561087a5761087a611e2156fea2646970667358221220684a773290116c1401a5148d4879ca36b7f45dc1f175b0f37c2b1603a4b0bcbb64736f6c63430008140033","opcodes":"PUSH1 0x80 PUSH1 0x40 MSTORE CALLVALUE DUP1 ISZERO PUSH3 0x11 JUMPI PUSH1 0x0 DUP1 REVERT JUMPDEST POP CALLER DUP1 PUSH3 0x40 JUMPI PUSH1 0x0 PUSH1 0x40 MLOAD PUSH4 0x1E4FBDF7 PUSH1 0xE0 SHL DUP2 MSTORE PUSH1 0x4 ADD PUSH3 0x37 SWAP2 SWAP1 PUSH3 0xF2 JUMP JUMPDEST PUSH1 0x40 MLOAD DUP1 SWAP2 SUB SWAP1 REVERT JUMPDEST PUSH3 0x4B DUP2 PUSH3 0x7E JUMP JUMPDEST POP PUSH1 0x1 DUP1 DUP1 SSTORE CALLER PUSH1 0x0 SWAP1 DUP2 MSTORE PUSH1 0x4 PUSH1 0x20 SWAP1 DUP2 MSTORE PUSH1 0x40 DUP1 DUP4 KECCAK256 DUP5 SWAP1 SSTORE PUSH1 0x5 SWAP1 SWAP2 MSTORE SWAP1 KECCAK256 DUP1 SLOAD PUSH1 0xFF NOT AND SWAP1 SWAP2 OR SWAP1 SSTORE PUSH3 0x102 JUMP JUMPDEST PUSH1 0x0 DUP1 SLOAD PUSH1 0x1 PUSH1 0x1 PUSH1 0xA0 SHL SUB DUP4 DUP2 AND PUSH1 0x1 PUSH1 0x1 PUSH1 0xA0 SHL SUB NOT DUP4 AND DUP2 OR DUP5 SSTORE PUSH1 0x40 MLOAD SWAP2 SWAP1 SWAP3 AND SWAP3 DUP4 SWAP2 PUSH32 0x8BE0079C531659141344CD1FD0A4F28419497F9722A3DAAFE3B4186F6B6457E0 SWAP2 SWAP1 LOG3 POP POP JUMP JUMPDEST PUSH1 0x0 PUSH1 0x1 PUSH1 0x1 PUSH1 0xA0 SHL SUB DUP3 AND JUMPDEST SWAP3 SWAP2 POP POP JUMP JUMPDEST PUSH3 0xEC DUP2 PUSH3 0xCE JUMP JUMPDEST DUP3 MSTORE POP POP JUMP JUMPDEST PUSH1 0x20 DUP2 ADD PUSH3 0xDB DUP3 DUP5 PUSH3 0xE1 JUMP JUMPDEST PUSH2 0x2643 DUP1 PUSH3 0x112 PUSH1 0x0 CODECOPY PUSH1 0x0 RETURN INVALID PUSH1 0x80 PUSH1 0x40 MSTORE CALLVALUE DUP1 ISZERO PUSH2 0x10 JUMPI PUSH1 0x0 DUP1 REVERT JUMPDEST POP PUSH1 0x4 CALLDATASIZE LT PUSH2 0x1A9 JUMPI PUSH1 0x0 CALLDATALOAD PUSH1 0xE0 SHR DUP1 PUSH4 0x715018A6 GT PUSH2 0xF9 JUMPI DUP1 PUSH4 0xBFFE3486 GT PUSH2 0x97 JUMPI DUP1 PUSH4 0xDA35C664 GT PUSH2 0x71 JUMPI DUP1 PUSH4 0xDA35C664 EQ PUSH2 0x41E JUMPI DUP1 PUSH4 0xDA36CFFE EQ PUSH2 0x427 JUMPI DUP1 PUSH4 0xEF3CF0E9 EQ PUSH2 0x44A JUMPI DUP1 PUSH4 0xF2FDE38B EQ PUSH2 0x46B JUMPI PUSH1 0x0 DUP1 REVERT JUMPDEST DUP1 PUSH4 0xBFFE3486 EQ PUSH2 0x390 JUMPI DUP1 PUSH4 0xC07473F6 EQ PUSH2 0x3DC JUMPI DUP1 PUSH4 0xC7F758A8 EQ PUSH2 0x3FC JUMPI PUSH1 0x0 DUP1 REVERT JUMPDEST DUP1 PUSH4 0xA4D31805 GT PUSH2 0xD3 JUMPI DUP1 PUSH4 0xA4D31805 EQ PUSH2 0x348 JUMPI DUP1 PUSH4 0xB1610D7E EQ PUSH2 0x350 JUMPI DUP1 PUSH4 0xB31E1D4D EQ PUSH2 0x35A JUMPI DUP1 PUSH4 0xBEA81FA9 EQ PUSH2 0x36D JUMPI PUSH1 0x0 DUP1 REVERT JUMPDEST DUP1 PUSH4 0x715018A6 EQ PUSH2 0x314 JUMPI DUP1 PUSH4 0x82E89197 EQ PUSH2 0x31C JUMPI DUP1 PUSH4 0x8DA5CB5B EQ PUSH2 0x32F JUMPI PUSH1 0x0 DUP1 REVERT JUMPDEST DUP1 PUSH4 0x4093CEBB GT PUSH2 0x166 JUMPI DUP1 PUSH4 0x5B7BAF64 GT PUSH2 0x140 JUMPI DUP1 PUSH4 0x5B7BAF64 EQ PUSH2 0x2D1 JUMPI DUP1 PUSH4 0x644DDBFC EQ PUSH2 0x2E4 JUMPI DUP1 PUSH4 0x6E30BC9E EQ PUSH2 0x2F7 JUMPI DUP1 PUSH4 0x7097E18E EQ PUSH2 0x301 JUMPI PUSH1 0x0 DUP1 REVERT JUMPDEST DUP1 PUSH4 0x4093CEBB EQ PUSH2 0x28B JUMPI DUP1 PUSH4 0x43859632 EQ PUSH2 0x29E JUMPI DUP1 PUSH4 0x49C2A1A6 EQ PUSH2 0x2BE JUMPI PUSH1 0x0 DUP1 REVERT JUMPDEST DUP1 PUSH4 0x13CF08B EQ PUSH2 0x1AE JUMPI DUP1 PUSH4 0x386A016 EQ PUSH2 0x1DF JUMPI DUP1 PUSH4 0xF010058 EQ PUSH2 0x1F4 JUMPI DUP1 PUSH4 0x152439DB EQ PUSH2 0x215 JUMPI DUP1 PUSH4 0x2B293768 EQ PUSH2 0x230 JUMPI DUP1 PUSH4 0x38DB6DD3 EQ PUSH2 0x278 JUMPI JUMPDEST PUSH1 0x0 DUP1 REVERT JUMPDEST PUSH2 0x1C1 PUSH2 0x1BC CALLDATASIZE PUSH1 0x4 PUSH2 0x1654 JUMP JUMPDEST PUSH2 0x47E JUMP JUMPDEST PUSH1 0x40 MLOAD PUSH2 0x1D6 SWAP10 SWAP9 SWAP8 SWAP7 SWAP6 SWAP5 SWAP4 SWAP3 SWAP2 SWAP1 PUSH2 0x16E3 JUMP JUMPDEST PUSH1 0x40 MLOAD DUP1 SWAP2 SUB SWAP1 RETURN JUMPDEST PUSH2 0x1F2 PUSH2 0x1ED CALLDATASIZE PUSH1 0x4 PUSH2 0x1654 JUMP JUMPDEST PUSH2 0x55A JUMP JUMPDEST STOP JUMPDEST PUSH2 0x207 PUSH2 0x202 CALLDATASIZE PUSH1 0x4 PUSH2 0x1654 JUMP JUMPDEST PUSH2 0x5D7 JUMP JUMPDEST PUSH1 0x40 MLOAD PUSH2 0x1D6 SWAP3 SWAP2 SWAP1 PUSH2 0x176E JUMP JUMPDEST PUSH2 0x223 PUSH1 0x1 PUSH1 0x1 PUSH1 0x80 SHL SUB DUP2 JUMP JUMPDEST PUSH1 0x40 MLOAD PUSH2 0x1D6 SWAP2 SWAP1 PUSH2 0x1790 JUMP JUMPDEST PUSH2 0x26A PUSH2 0x23E CALLDATASIZE PUSH1 0x4 PUSH2 0x17C3 JUMP JUMPDEST PUSH1 0x1 PUSH1 0x1 PUSH1 0xA0 SHL SUB SWAP1 DUP2 AND PUSH1 0x0 SWAP1 DUP2 MSTORE PUSH1 0x3 PUSH1 0x20 MSTORE PUSH1 0x40 SWAP1 KECCAK256 SLOAD SWAP1 DUP2 AND SWAP2 PUSH1 0x1 PUSH1 0xA0 SHL SWAP1 SWAP2 DIV PUSH1 0xFF AND SWAP1 JUMP JUMPDEST PUSH1 0x40 MLOAD PUSH2 0x1D6 SWAP3 SWAP2 SWAP1 PUSH2 0x17ED JUMP JUMPDEST PUSH2 0x1F2 PUSH2 0x286 CALLDATASIZE PUSH1 0x4 PUSH2 0x17C3 JUMP JUMPDEST PUSH2 0x61A JUMP JUMPDEST PUSH2 0x1F2 PUSH2 0x299 CALLDATASIZE PUSH1 0x4 PUSH2 0x185A JUMP JUMPDEST PUSH2 0x6EE JUMP JUMPDEST PUSH2 0x2B1 PUSH2 0x2AC CALLDATASIZE PUSH1 0x4 PUSH2 0x18DE JUMP JUMPDEST PUSH2 0x850 JUMP JUMPDEST PUSH1 0x40 MLOAD PUSH2 0x1D6 SWAP2 SWAP1 PUSH2 0x191B JUMP JUMPDEST PUSH2 0x223 PUSH2 0x2CC CALLDATASIZE PUSH1 0x4 PUSH2 0x1929 JUMP JUMPDEST PUSH2 0x880 JUMP JUMPDEST PUSH2 0x1F2 PUSH2 0x2DF CALLDATASIZE PUSH1 0x4 PUSH2 0x1654 JUMP JUMPDEST PUSH2 0x9F1 JUMP JUMPDEST PUSH2 0x1F2 PUSH2 0x2F2 CALLDATASIZE PUSH1 0x4 PUSH2 0x1654 JUMP JUMPDEST PUSH2 0xAE1 JUMP JUMPDEST PUSH2 0x223 PUSH3 0x15180 DUP2 JUMP JUMPDEST PUSH2 0x1F2 PUSH2 0x30F CALLDATASIZE PUSH1 0x4 PUSH2 0x1984 JUMP JUMPDEST PUSH2 0xC17 JUMP JUMPDEST PUSH2 0x1F2 PUSH2 0xEDB JUMP JUMPDEST PUSH2 0x223 PUSH2 0x32A CALLDATASIZE PUSH1 0x4 PUSH2 0x1654 JUMP JUMPDEST PUSH2 0xEEF JUMP JUMPDEST PUSH1 0x0 SLOAD PUSH1 0x1 PUSH1 0x1 PUSH1 0xA0 SHL SUB AND PUSH1 0x40 MLOAD PUSH2 0x1D6 SWAP2 SWAP1 PUSH2 0x19F2 JUMP JUMPDEST PUSH2 0x1F2 PUSH2 0x102C JUMP JUMPDEST PUSH2 0x223 PUSH3 0x93A80 DUP2 JUMP JUMPDEST PUSH2 0x1F2 PUSH2 0x368 CALLDATASIZE PUSH1 0x4 PUSH2 0x17C3 JUMP JUMPDEST PUSH2 0x10E7 JUMP JUMPDEST PUSH2 0x380 PUSH2 0x37B CALLDATASIZE PUSH1 0x4 PUSH2 0x1654 JUMP JUMPDEST PUSH2 0x12E9 JUMP JUMPDEST PUSH1 0x40 MLOAD PUSH2 0x1D6 SWAP5 SWAP4 SWAP3 SWAP2 SWAP1 PUSH2 0x1A00 JUMP JUMPDEST PUSH2 0x3CD PUSH2 0x39E CALLDATASIZE PUSH1 0x4 PUSH2 0x17C3 JUMP JUMPDEST PUSH1 0x3 PUSH1 0x20 MSTORE PUSH1 0x0 SWAP1 DUP2 MSTORE PUSH1 0x40 SWAP1 KECCAK256 DUP1 SLOAD PUSH1 0x1 SWAP1 SWAP2 ADD SLOAD PUSH1 0x1 PUSH1 0x1 PUSH1 0xA0 SHL SUB DUP3 AND SWAP2 PUSH1 0x1 PUSH1 0xA0 SHL SWAP1 DIV PUSH1 0xFF AND SWAP1 DUP4 JUMP JUMPDEST PUSH1 0x40 MLOAD PUSH2 0x1D6 SWAP4 SWAP3 SWAP2 SWAP1 PUSH2 0x1A3E JUMP JUMPDEST PUSH2 0x223 PUSH2 0x3EA CALLDATASIZE PUSH1 0x4 PUSH2 0x17C3 JUMP JUMPDEST PUSH1 0x4 PUSH1 0x20 MSTORE PUSH1 0x0 SWAP1 DUP2 MSTORE PUSH1 0x40 SWAP1 KECCAK256 SLOAD DUP2 JUMP JUMPDEST PUSH2 0x40F PUSH2 0x40A CALLDATASIZE PUSH1 0x4 PUSH2 0x1654 JUMP JUMPDEST PUSH2 0x1348 JUMP JUMPDEST PUSH1 0x40 MLOAD PUSH2 0x1D6 SWAP4 SWAP3 SWAP2 SWAP1 PUSH2 0x1A66 JUMP JUMPDEST PUSH2 0x223 PUSH1 0x7 SLOAD DUP2 JUMP JUMPDEST PUSH2 0x2B1 PUSH2 0x435 CALLDATASIZE PUSH1 0x4 PUSH2 0x17C3 JUMP JUMPDEST PUSH1 0x5 PUSH1 0x20 MSTORE PUSH1 0x0 SWAP1 DUP2 MSTORE PUSH1 0x40 SWAP1 KECCAK256 SLOAD PUSH1 0xFF AND DUP2 JUMP JUMPDEST PUSH2 0x45D PUSH2 0x458 CALLDATASIZE PUSH1 0x4 PUSH2 0x1A93 JUMP JUMPDEST PUSH2 0x1428 JUMP JUMPDEST PUSH1 0x40 MLOAD PUSH2 0x1D6 SWAP3 SWAP2 SWAP1 PUSH2 0x1AD5 JUMP JUMPDEST PUSH2 0x1F2 PUSH2 0x479 CALLDATASIZE PUSH1 0x4 PUSH2 0x17C3 JUMP JUMPDEST PUSH2 0x14A8 JUMP JUMPDEST PUSH1 0x2 PUSH1 0x20 MSTORE PUSH1 0x0 SWAP1 DUP2 MSTORE PUSH1 0x40 SWAP1 KECCAK256 DUP1 SLOAD DUP2 SWAP1 PUSH2 0x499 SWAP1 PUSH2 0x1B06 JUMP JUMPDEST DUP1 PUSH1 0x1F ADD PUSH1 0x20 DUP1 SWAP2 DIV MUL PUSH1 0x20 ADD PUSH1 0x40 MLOAD SWAP1 DUP2 ADD PUSH1 0x40 MSTORE DUP1 SWAP3 SWAP2 SWAP1 DUP2 DUP2 MSTORE PUSH1 0x20 ADD DUP3 DUP1 SLOAD PUSH2 0x4C5 SWAP1 PUSH2 0x1B06 JUMP JUMPDEST DUP1 ISZERO PUSH2 0x512 JUMPI DUP1 PUSH1 0x1F LT PUSH2 0x4E7 JUMPI PUSH2 0x100 DUP1 DUP4 SLOAD DIV MUL DUP4 MSTORE SWAP2 PUSH1 0x20 ADD SWAP2 PUSH2 0x512 JUMP JUMPDEST DUP3 ADD SWAP2 SWAP1 PUSH1 0x0 MSTORE PUSH1 0x20 PUSH1 0x0 KECCAK256 SWAP1 JUMPDEST DUP2 SLOAD DUP2 MSTORE SWAP1 PUSH1 0x1 ADD SWAP1 PUSH1 0x20 ADD DUP1 DUP4 GT PUSH2 0x4F5 JUMPI DUP3 SWAP1 SUB PUSH1 0x1F AND DUP3 ADD SWAP2 JUMPDEST POP POP POP PUSH1 0x1 DUP5 ADD SLOAD PUSH1 0x2 DUP6 ADD SLOAD PUSH1 0x3 DUP7 ADD SLOAD PUSH1 0x4 DUP8 ADD SLOAD PUSH1 0x5 DUP9 ADD SLOAD PUSH1 0x6 SWAP1 SWAP9 ADD SLOAD SWAP7 SWAP8 SWAP4 SWAP7 SWAP3 SWAP6 POP SWAP1 SWAP4 POP PUSH1 0xFF DUP1 DUP3 AND SWAP4 PUSH2 0x100 DUP4 DIV DUP3 AND SWAP4 PUSH3 0x10000 SWAP1 SWAP4 DIV SWAP1 SWAP2 AND SWAP2 DUP10 JUMP JUMPDEST PUSH2 0x562 PUSH2 0x14E3 JUMP JUMPDEST PUSH1 0x7 SLOAD DUP2 LT PUSH2 0x58C JUMPI PUSH1 0x40 MLOAD PUSH3 0x461BCD PUSH1 0xE5 SHL DUP2 MSTORE PUSH1 0x4 ADD PUSH2 0x583 SWAP1 PUSH2 0x1B5C JUMP JUMPDEST PUSH1 0x40 MLOAD DUP1 SWAP2 SUB SWAP1 REVERT JUMPDEST PUSH1 0x0 DUP2 DUP2 MSTORE PUSH1 0x2 PUSH1 0x20 MSTORE PUSH1 0x40 SWAP1 KECCAK256 PUSH1 0x3 ADD SLOAD TIMESTAMP GT PUSH2 0x5BC JUMPI PUSH1 0x40 MLOAD PUSH3 0x461BCD PUSH1 0xE5 SHL DUP2 MSTORE PUSH1 0x4 ADD PUSH2 0x583 SWAP1 PUSH2 0x1B94 JUMP JUMPDEST PUSH1 0x0 SWAP1 DUP2 MSTORE PUSH1 0x2 PUSH1 0x20 MSTORE PUSH1 0x40 SWAP1 KECCAK256 PUSH1 0x4 ADD DUP1 SLOAD PUSH1 0xFF NOT AND SWAP1 SSTORE JUMP JUMPDEST PUSH1 0x0 DUP1 PUSH1 0x7 SLOAD DUP4 LT PUSH2 0x5FB JUMPI PUSH1 0x40 MLOAD PUSH3 0x461BCD PUSH1 0xE5 SHL DUP2 MSTORE PUSH1 0x4 ADD PUSH2 0x583 SWAP1 PUSH2 0x1B5C JUMP JUMPDEST POP POP PUSH1 0x0 SWAP1 DUP2 MSTORE PUSH1 0x2 PUSH1 0x20 DUP2 SWAP1 MSTORE PUSH1 0x40 SWAP1 SWAP2 KECCAK256 PUSH1 0x1 DUP2 ADD SLOAD SWAP2 ADD SLOAD SWAP1 SWAP2 JUMP JUMPDEST PUSH2 0x622 PUSH2 0x14E3 JUMP JUMPDEST PUSH1 0x1 PUSH1 0x1 PUSH1 0xA0 SHL SUB DUP2 AND PUSH2 0x648 JUMPI PUSH1 0x40 MLOAD PUSH3 0x461BCD PUSH1 0xE5 SHL DUP2 MSTORE PUSH1 0x4 ADD PUSH2 0x583 SWAP1 PUSH2 0x1BCE JUMP JUMPDEST PUSH1 0x1 PUSH1 0x1 PUSH1 0xA0 SHL SUB DUP2 AND PUSH1 0x0 SWAP1 DUP2 MSTORE PUSH1 0x5 PUSH1 0x20 MSTORE PUSH1 0x40 SWAP1 KECCAK256 SLOAD PUSH1 0xFF AND ISZERO PUSH2 0x681 JUMPI PUSH1 0x40 MLOAD PUSH3 0x461BCD PUSH1 0xE5 SHL DUP2 MSTORE PUSH1 0x4 ADD PUSH2 0x583 SWAP1 PUSH2 0x1C10 JUMP JUMPDEST PUSH1 0x1 PUSH1 0x1 PUSH1 0xA0 SHL SUB DUP2 AND PUSH1 0x0 DUP2 DUP2 MSTORE PUSH1 0x5 PUSH1 0x20 SWAP1 DUP2 MSTORE PUSH1 0x40 DUP1 DUP4 KECCAK256 DUP1 SLOAD PUSH1 0xFF NOT AND PUSH1 0x1 SWAP1 DUP2 OR SWAP1 SWAP2 SSTORE PUSH1 0x4 SWAP1 SWAP3 MSTORE SWAP2 DUP3 SWAP1 KECCAK256 DUP2 SWAP1 SSTORE SWAP1 MLOAD PUSH32 0xF16CE2C2236E2C6E3DF646F80D657BCEEF4CD7F3A240C47E82ADFA17A5F47241 SWAP2 PUSH2 0x6E3 SWAP2 PUSH2 0x1C38 JUMP JUMPDEST PUSH1 0x40 MLOAD DUP1 SWAP2 SUB SWAP1 LOG2 POP JUMP JUMPDEST PUSH1 0x0 DUP6 DUP2 MSTORE PUSH1 0x6 PUSH1 0x20 MSTORE PUSH1 0x40 SWAP1 KECCAK256 SLOAD PUSH1 0x7 SLOAD DUP2 LT PUSH2 0x71E JUMPI PUSH1 0x40 MLOAD PUSH3 0x461BCD PUSH1 0xE5 SHL DUP2 MSTORE PUSH1 0x4 ADD PUSH2 0x583 SWAP1 PUSH2 0x1C6D JUMP JUMPDEST PUSH1 0x0 DUP2 DUP2 MSTORE PUSH1 0x2 PUSH1 0x20 MSTORE PUSH1 0x40 SWAP1 KECCAK256 PUSH1 0x4 DUP2 ADD SLOAD PUSH2 0x100 SWAP1 DIV PUSH1 0xFF AND PUSH2 0x755 JUMPI PUSH1 0x40 MLOAD PUSH3 0x461BCD PUSH1 0xE5 SHL DUP2 MSTORE PUSH1 0x4 ADD PUSH2 0x583 SWAP1 PUSH2 0x1CAF JUMP JUMPDEST DUP7 DUP2 PUSH1 0x6 ADD SLOAD EQ PUSH2 0x778 JUMPI PUSH1 0x40 MLOAD PUSH3 0x461BCD PUSH1 0xE5 SHL DUP2 MSTORE PUSH1 0x4 ADD PUSH2 0x583 SWAP1 PUSH2 0x1CE7 JUMP JUMPDEST PUSH1 0x4 DUP2 ADD SLOAD PUSH3 0x10000 SWAP1 DIV PUSH1 0xFF AND ISZERO PUSH2 0x7A3 JUMPI PUSH1 0x40 MLOAD PUSH3 0x461BCD PUSH1 0xE5 SHL DUP2 MSTORE PUSH1 0x4 ADD PUSH2 0x583 SWAP1 PUSH2 0x1D29 JUMP JUMPDEST PUSH1 0x0 DUP3 DUP2 MSTORE PUSH1 0x8 PUSH1 0x20 MSTORE PUSH1 0x40 SWAP1 KECCAK256 SLOAD DUP7 EQ PUSH2 0x7D0 JUMPI PUSH1 0x40 MLOAD PUSH3 0x461BCD PUSH1 0xE5 SHL DUP2 MSTORE PUSH1 0x4 ADD PUSH2 0x583 SWAP1 PUSH2 0x1D60 JUMP JUMPDEST PUSH1 0x0 DUP3 DUP2 MSTORE PUSH1 0x9 PUSH1 0x20 MSTORE PUSH1 0x40 SWAP1 KECCAK256 SLOAD DUP6 EQ PUSH2 0x7FD JUMPI PUSH1 0x40 MLOAD PUSH3 0x461BCD PUSH1 0xE5 SHL DUP2 MSTORE PUSH1 0x4 ADD PUSH2 0x583 SWAP1 PUSH2 0x1D96 JUMP JUMPDEST PUSH1 0x4 DUP2 ADD DUP1 SLOAD PUSH1 0xFF NOT AND SWAP1 SSTORE PUSH1 0x40 MLOAD DUP8 SWAP1 DUP4 SWAP1 PUSH32 0x60A5261A8DE6F00D7BF40F51CF2B023425BC668DB5E9BC89DB8C104706EFBC31 SWAP1 PUSH2 0x83F SWAP1 DUP11 SWAP1 DUP11 SWAP1 PUSH2 0x176E JUMP JUMPDEST PUSH1 0x40 MLOAD DUP1 SWAP2 SUB SWAP1 LOG3 POP POP POP POP POP POP POP JUMP JUMPDEST PUSH1 0x0 DUP3 DUP2 MSTORE PUSH1 0x2 PUSH1 0x20 SWAP1 DUP2 MSTORE PUSH1 0x40 DUP1 DUP4 KECCAK256 PUSH1 0x1 PUSH1 0x1 PUSH1 0xA0 SHL SUB DUP6 AND DUP5 MSTORE PUSH1 0x7 ADD SWAP1 SWAP2 MSTORE SWAP1 KECCAK256 SLOAD PUSH1 0xFF AND JUMPDEST SWAP3 SWAP2 POP POP JUMP JUMPDEST PUSH1 0x0 PUSH2 0x88A PUSH2 0x14E3 JUMP JUMPDEST DUP2 PUSH2 0x8A7 JUMPI PUSH1 0x40 MLOAD PUSH3 0x461BCD PUSH1 0xE5 SHL DUP2 MSTORE PUSH1 0x4 ADD PUSH2 0x583 SWAP1 PUSH2 0x1DD8 JUMP JUMPDEST PUSH2 0x400 DUP3 GT ISZERO PUSH2 0x8C9 JUMPI PUSH1 0x40 MLOAD PUSH3 0x461BCD PUSH1 0xE5 SHL DUP2 MSTORE PUSH1 0x4 ADD PUSH2 0x583 SWAP1 PUSH2 0x1E11 JUMP JUMPDEST PUSH1 0x7 DUP1 SLOAD PUSH1 0x0 SWAP2 DUP3 PUSH2 0x8DA DUP4 PUSH2 0x1E37 JUMP JUMPDEST SWAP1 SWAP2 SSTORE POP PUSH1 0x0 DUP2 DUP2 MSTORE PUSH1 0x2 PUSH1 0x20 MSTORE PUSH1 0x40 SWAP1 KECCAK256 SWAP1 SWAP2 POP DUP1 PUSH2 0x8FB DUP6 DUP8 DUP4 PUSH2 0x1EFB JUMP JUMPDEST POP DUP2 TIMESTAMP PUSH1 0x40 MLOAD PUSH1 0x20 ADD PUSH2 0x90F SWAP3 SWAP2 SWAP1 PUSH2 0x1FC6 JUMP JUMPDEST PUSH1 0x40 DUP1 MLOAD PUSH1 0x1F NOT DUP2 DUP5 SUB ADD DUP2 MSTORE SWAP1 DUP3 SWAP1 MSTORE DUP1 MLOAD PUSH1 0x20 SWAP2 DUP3 ADD KECCAK256 PUSH1 0x1 DUP5 ADD SSTORE PUSH2 0x93B SWAP2 DUP5 SWAP2 TIMESTAMP SWAP2 ADD PUSH2 0x2001 JUMP JUMPDEST PUSH1 0x40 DUP1 MLOAD PUSH1 0x1F NOT DUP2 DUP5 SUB ADD DUP2 MSTORE SWAP2 SWAP1 MSTORE DUP1 MLOAD PUSH1 0x20 SWAP1 SWAP2 ADD KECCAK256 PUSH1 0x2 DUP3 ADD SSTORE PUSH2 0x965 PUSH3 0x93A80 TIMESTAMP PUSH2 0x201D JUMP JUMPDEST PUSH1 0x3 DUP3 ADD SWAP1 DUP2 SSTORE PUSH1 0x4 DUP3 ADD DUP1 SLOAD PUSH3 0xFFFFFF NOT AND PUSH1 0x1 OR SWAP1 SSTORE PUSH1 0x0 PUSH1 0x5 DUP4 ADD DUP2 SWAP1 SSTORE PUSH1 0x6 DUP4 ADD DUP2 SWAP1 SSTORE DUP4 DUP2 MSTORE PUSH1 0x8 PUSH1 0x20 SWAP1 DUP2 MSTORE PUSH1 0x40 DUP1 DUP4 KECCAK256 DUP4 SWAP1 SSTORE PUSH1 0x9 SWAP1 SWAP2 MSTORE DUP1 DUP3 KECCAK256 SWAP2 SWAP1 SWAP2 SSTORE SWAP1 SLOAD SWAP1 MLOAD DUP4 SWAP2 PUSH32 0xF5DC0DA9AFA6D080780A49FD8C680F03D2DDF3C067CD6D0C85360C096644D2D3 SWAP2 PUSH2 0x9E1 SWAP2 DUP10 SWAP2 DUP10 SWAP2 SWAP1 PUSH2 0x205C JUMP JUMPDEST PUSH1 0x40 MLOAD DUP1 SWAP2 SUB SWAP1 LOG2 POP SWAP4 SWAP3 POP POP POP JUMP JUMPDEST PUSH2 0x9F9 PUSH2 0x1510 JUMP JUMPDEST PUSH1 0x7 SLOAD DUP2 LT PUSH2 0xA1A JUMPI PUSH1 0x40 MLOAD PUSH3 0x461BCD PUSH1 0xE5 SHL DUP2 MSTORE PUSH1 0x4 ADD PUSH2 0x583 SWAP1 PUSH2 0x1B5C JUMP JUMPDEST PUSH1 0x0 DUP2 DUP2 MSTORE PUSH1 0x2 PUSH1 0x20 MSTORE PUSH1 0x40 SWAP1 KECCAK256 PUSH1 0x4 DUP2 ADD SLOAD PUSH3 0x10000 SWAP1 DIV PUSH1 0xFF AND PUSH2 0xA52 JUMPI PUSH1 0x40 MLOAD PUSH3 0x461BCD PUSH1 0xE5 SHL DUP2 MSTORE PUSH1 0x4 ADD PUSH2 0x583 SWAP1 PUSH2 0x20A7 JUMP JUMPDEST CALLER PUSH1 0x0 SWAP1 DUP2 MSTORE PUSH1 0x7 DUP3 ADD PUSH1 0x20 MSTORE PUSH1 0x40 SWAP1 KECCAK256 SLOAD PUSH1 0xFF AND PUSH2 0xA83 JUMPI PUSH1 0x40 MLOAD PUSH3 0x461BCD PUSH1 0xE5 SHL DUP2 MSTORE PUSH1 0x4 ADD PUSH2 0x583 SWAP1 PUSH2 0x20E9 JUMP JUMPDEST CALLER PUSH1 0x0 DUP2 DUP2 MSTORE PUSH1 0x7 DUP4 ADD PUSH1 0x20 MSTORE PUSH1 0x40 DUP1 DUP3 KECCAK256 DUP1 SLOAD PUSH1 0xFF NOT AND SWAP1 SSTORE MLOAD DUP5 SWAP2 PUSH32 0x7A482FDEB6BC9A1376F597068A214A7A39472BB2EFF1B8CAD21BA04F49DDCA1B SWAP2 PUSH2 0xACC SWAP2 SWAP1 PUSH2 0x1C38 JUMP JUMPDEST PUSH1 0x40 MLOAD DUP1 SWAP2 SUB SWAP1 LOG3 POP PUSH2 0xADE PUSH1 0x1 DUP1 SSTORE JUMP JUMPDEST POP JUMP JUMPDEST PUSH1 0x7 SLOAD DUP2 LT PUSH2 0xB02 JUMPI PUSH1 0x40 MLOAD PUSH3 0x461BCD PUSH1 0xE5 SHL DUP2 MSTORE PUSH1 0x4 ADD PUSH2 0x583 SWAP1 PUSH2 0x1B5C JUMP JUMPDEST PUSH1 0x0 DUP2 DUP2 MSTORE PUSH1 0x2 PUSH1 0x20 MSTORE PUSH1 0x40 SWAP1 KECCAK256 PUSH1 0x4 DUP2 ADD SLOAD PUSH2 0x100 SWAP1 DIV PUSH1 0xFF AND PUSH2 0xB39 JUMPI PUSH1 0x40 MLOAD PUSH3 0x461BCD PUSH1 0xE5 SHL DUP2 MSTORE PUSH1 0x4 ADD PUSH2 0x583 SWAP1 PUSH2 0x1CAF JUMP JUMPDEST PUSH1 0x4 DUP2 ADD SLOAD PUSH1 0xFF AND ISZERO PUSH2 0xB5E JUMPI PUSH1 0x40 MLOAD PUSH3 0x461BCD PUSH1 0xE5 SHL DUP2 MSTORE PUSH1 0x4 ADD PUSH2 0x583 SWAP1 PUSH2 0x2123 JUMP JUMPDEST PUSH1 0x0 PUSH3 0x15180 DUP3 PUSH1 0x5 ADD SLOAD PUSH2 0xB73 SWAP2 SWAP1 PUSH2 0x201D JUMP JUMPDEST TIMESTAMP LT ISZERO SWAP1 POP PUSH2 0xB8A PUSH1 0x0 SLOAD PUSH1 0x1 PUSH1 0x1 PUSH1 0xA0 SHL SUB AND SWAP1 JUMP JUMPDEST PUSH1 0x1 PUSH1 0x1 PUSH1 0xA0 SHL SUB AND CALLER PUSH1 0x1 PUSH1 0x1 PUSH1 0xA0 SHL SUB AND EQ DUP1 PUSH2 0xBA6 JUMPI POP DUP1 JUMPDEST PUSH2 0xBC2 JUMPI PUSH1 0x40 MLOAD PUSH3 0x461BCD PUSH1 0xE5 SHL DUP2 MSTORE PUSH1 0x4 ADD PUSH2 0x583 SWAP1 PUSH2 0x2165 JUMP JUMPDEST PUSH1 0x4 DUP3 ADD DUP1 SLOAD PUSH3 0xFF0000 NOT AND PUSH3 0x10000 OR SWAP1 SSTORE PUSH1 0x6 DUP3 ADD SLOAD PUSH1 0x40 MLOAD DUP5 SWAP1 PUSH32 0x8B2808DBE440FF36B9C3F43DFCA588A3FFEB2AF2EF2D67AAD297F32284AD4C0E SWAP1 PUSH2 0xC0A SWAP1 PUSH2 0x21A7 JUMP JUMPDEST PUSH1 0x40 MLOAD DUP1 SWAP2 SUB SWAP1 LOG3 POP POP POP JUMP JUMPDEST CALLER PUSH1 0x0 SWAP1 DUP2 MSTORE PUSH1 0x5 PUSH1 0x20 MSTORE PUSH1 0x40 SWAP1 KECCAK256 SLOAD PUSH1 0xFF AND PUSH2 0xC46 JUMPI PUSH1 0x40 MLOAD PUSH3 0x461BCD PUSH1 0xE5 SHL DUP2 MSTORE PUSH1 0x4 ADD PUSH2 0x583 SWAP1 PUSH2 0x21E2 JUMP JUMPDEST DUP4 PUSH1 0x7 SLOAD DUP2 LT PUSH2 0xC68 JUMPI PUSH1 0x40 MLOAD PUSH3 0x461BCD PUSH1 0xE5 SHL DUP2 MSTORE PUSH1 0x4 ADD PUSH2 0x583 SWAP1 PUSH2 0x1B5C JUMP JUMPDEST PUSH1 0x0 DUP2 DUP2 MSTORE PUSH1 0x2 PUSH1 0x20 MSTORE PUSH1 0x40 SWAP1 KECCAK256 PUSH1 0x4 ADD SLOAD PUSH1 0xFF AND PUSH2 0xC99 JUMPI PUSH1 0x40 MLOAD PUSH3 0x461BCD PUSH1 0xE5 SHL DUP2 MSTORE PUSH1 0x4 ADD PUSH2 0x583 SWAP1 PUSH2 0x221A JUMP JUMPDEST PUSH1 0x0 DUP2 DUP2 MSTORE PUSH1 0x2 PUSH1 0x20 MSTORE PUSH1 0x40 SWAP1 KECCAK256 PUSH1 0x3 ADD SLOAD TIMESTAMP GT ISZERO PUSH2 0xCCA JUMPI PUSH1 0x40 MLOAD PUSH3 0x461BCD PUSH1 0xE5 SHL DUP2 MSTORE PUSH1 0x4 ADD PUSH2 0x583 SWAP1 PUSH2 0x2252 JUMP JUMPDEST PUSH1 0x0 DUP6 DUP2 MSTORE PUSH1 0x2 PUSH1 0x20 SWAP1 DUP2 MSTORE PUSH1 0x40 DUP1 DUP4 KECCAK256 CALLER DUP5 MSTORE PUSH1 0x7 ADD SWAP1 SWAP2 MSTORE SWAP1 KECCAK256 SLOAD PUSH1 0xFF AND ISZERO PUSH2 0xD07 JUMPI PUSH1 0x40 MLOAD PUSH3 0x461BCD PUSH1 0xE5 SHL DUP2 MSTORE PUSH1 0x4 ADD PUSH2 0x583 SWAP1 PUSH2 0x2284 JUMP JUMPDEST CALLER PUSH1 0x0 SWAP1 DUP2 MSTORE PUSH1 0x3 PUSH1 0x20 MSTORE PUSH1 0x40 SWAP1 KECCAK256 SLOAD PUSH1 0x1 PUSH1 0xA0 SHL SWAP1 DIV PUSH1 0xFF AND ISZERO PUSH2 0xD3E JUMPI PUSH1 0x40 MLOAD PUSH3 0x461BCD PUSH1 0xE5 SHL DUP2 MSTORE PUSH1 0x4 ADD PUSH2 0x583 SWAP1 PUSH2 0x22D7 JUMP JUMPDEST PUSH1 0x0 DUP6 DUP2 MSTORE PUSH1 0x2 PUSH1 0x20 SWAP1 DUP2 MSTORE PUSH1 0x40 DUP1 DUP4 KECCAK256 CALLER DUP5 MSTORE PUSH1 0x7 ADD DUP3 MSTORE DUP1 DUP4 KECCAK256 DUP1 SLOAD PUSH1 0xFF NOT AND PUSH1 0x1 OR SWAP1 SSTORE PUSH1 0x4 SWAP1 SWAP2 MSTORE SWAP1 KECCAK256 SLOAD DUP1 PUSH2 0xD8A JUMPI PUSH1 0x40 MLOAD PUSH3 0x461BCD PUSH1 0xE5 SHL DUP2 MSTORE PUSH1 0x4 ADD PUSH2 0x583 SWAP1 PUSH2 0x230B JUMP JUMPDEST PUSH1 0x0 DUP7 DUP2 MSTORE PUSH1 0x2 PUSH1 0x20 SWAP1 DUP2 MSTORE PUSH1 0x40 DUP1 DUP4 KECCAK256 SWAP1 MLOAD SWAP1 SWAP3 SWAP2 PUSH2 0xDB0 SWAP2 TIMESTAMP SWAP2 CALLER SWAP2 DUP13 SWAP2 ADD PUSH2 0x2343 JUMP JUMPDEST PUSH1 0x40 MLOAD PUSH1 0x20 DUP2 DUP4 SUB SUB DUP2 MSTORE SWAP1 PUSH1 0x40 MSTORE DUP1 MLOAD SWAP1 PUSH1 0x20 ADD KECCAK256 PUSH1 0x0 SHR SWAP1 POP DUP7 ISZERO PUSH2 0xE31 JUMPI PUSH1 0x0 DUP9 DUP2 MSTORE PUSH1 0x8 PUSH1 0x20 MSTORE PUSH1 0x40 DUP2 KECCAK256 DUP1 SLOAD DUP6 SWAP3 SWAP1 PUSH2 0xDEF SWAP1 DUP5 SWAP1 PUSH2 0x201D JUMP JUMPDEST SWAP1 SWAP2 SSTORE POP POP PUSH1 0x1 DUP3 ADD SLOAD PUSH1 0x40 MLOAD PUSH2 0xE0F SWAP2 SWAP1 CALLER SWAP1 DUP7 SWAP1 DUP6 SWAP1 PUSH1 0x20 ADD PUSH2 0x2371 JUMP JUMPDEST PUSH1 0x40 DUP1 MLOAD PUSH1 0x1F NOT DUP2 DUP5 SUB ADD DUP2 MSTORE SWAP2 SWAP1 MSTORE DUP1 MLOAD PUSH1 0x20 SWAP1 SWAP2 ADD KECCAK256 PUSH1 0x1 DUP4 ADD SSTORE PUSH2 0xE8D JUMP JUMPDEST PUSH1 0x0 DUP9 DUP2 MSTORE PUSH1 0x9 PUSH1 0x20 MSTORE PUSH1 0x40 DUP2 KECCAK256 DUP1 SLOAD DUP6 SWAP3 SWAP1 PUSH2 0xE4F SWAP1 DUP5 SWAP1 PUSH2 0x201D JUMP JUMPDEST SWAP1 SWAP2 SSTORE POP POP PUSH1 0x2 DUP3 ADD SLOAD PUSH1 0x40 MLOAD PUSH2 0xE6F SWAP2 SWAP1 CALLER SWAP1 DUP7 SWAP1 DUP6 SWAP1 PUSH1 0x20 ADD PUSH2 0x2371 JUMP JUMPDEST PUSH1 0x40 DUP1 MLOAD PUSH1 0x1F NOT DUP2 DUP5 SUB ADD DUP2 MSTORE SWAP2 SWAP1 MSTORE DUP1 MLOAD PUSH1 0x20 SWAP1 SWAP2 ADD KECCAK256 PUSH1 0x2 DUP4 ADD SSTORE JUMPDEST CALLER PUSH1 0x1 PUSH1 0x1 PUSH1 0xA0 SHL SUB AND DUP9 PUSH32 0xCBDF6214089CBA887ECBF35A0B6A734589959C9763342C756BB2A80CA2BC9F6E DUP10 DUP7 PUSH1 0x40 MLOAD PUSH2 0xEC9 SWAP3 SWAP2 SWAP1 PUSH2 0x23AD JUMP JUMPDEST PUSH1 0x40 MLOAD DUP1 SWAP2 SUB SWAP1 LOG3 POP POP POP POP POP POP POP POP JUMP JUMPDEST PUSH2 0xEE3 PUSH2 0x14E3 JUMP JUMPDEST PUSH2 0xEED PUSH1 0x0 PUSH2 0x153A JUMP JUMPDEST JUMP JUMPDEST PUSH1 0x0 PUSH2 0xEF9 PUSH2 0x14E3 JUMP JUMPDEST PUSH1 0x7 SLOAD DUP3 LT PUSH2 0xF1A JUMPI PUSH1 0x40 MLOAD PUSH3 0x461BCD PUSH1 0xE5 SHL DUP2 MSTORE PUSH1 0x4 ADD PUSH2 0x583 SWAP1 PUSH2 0x1B5C JUMP JUMPDEST PUSH1 0x0 DUP3 DUP2 MSTORE PUSH1 0x2 PUSH1 0x20 MSTORE PUSH1 0x40 SWAP1 KECCAK256 PUSH1 0x3 ADD SLOAD TIMESTAMP GT PUSH2 0xF4A JUMPI PUSH1 0x40 MLOAD PUSH3 0x461BCD PUSH1 0xE5 SHL DUP2 MSTORE PUSH1 0x4 ADD PUSH2 0x583 SWAP1 PUSH2 0x1B94 JUMP JUMPDEST PUSH1 0x0 DUP3 DUP2 MSTORE PUSH1 0x2 PUSH1 0x20 MSTORE PUSH1 0x40 SWAP1 KECCAK256 PUSH1 0x4 ADD SLOAD PUSH2 0x100 SWAP1 DIV PUSH1 0xFF AND ISZERO PUSH2 0xF81 JUMPI PUSH1 0x40 MLOAD PUSH3 0x461BCD PUSH1 0xE5 SHL DUP2 MSTORE PUSH1 0x4 ADD PUSH2 0x583 SWAP1 PUSH2 0x23ED JUMP JUMPDEST PUSH1 0x0 DUP3 DUP2 MSTORE PUSH1 0x2 PUSH1 0x20 SWAP1 DUP2 MSTORE PUSH1 0x40 SWAP2 DUP3 SWAP1 KECCAK256 SWAP2 MLOAD PUSH2 0xFA5 SWAP2 DUP6 SWAP2 TIMESTAMP SWAP2 CALLER SWAP2 ADD PUSH2 0x23FD JUMP JUMPDEST PUSH1 0x40 DUP1 MLOAD PUSH1 0x1F NOT DUP2 DUP5 SUB ADD DUP2 MSTORE DUP3 DUP3 MSTORE DUP1 MLOAD PUSH1 0x20 SWAP2 DUP3 ADD KECCAK256 PUSH1 0x4 DUP6 ADD DUP1 SLOAD PUSH2 0xFF00 NOT AND PUSH2 0x100 OR SWAP1 SSTORE TIMESTAMP PUSH1 0x5 DUP7 ADD DUP2 SWAP1 SSTORE PUSH1 0x6 DUP1 DUP8 ADD DUP4 SWAP1 SSTORE PUSH1 0x0 DUP4 DUP2 MSTORE SWAP4 MSTORE SWAP3 SWAP1 SWAP2 KECCAK256 DUP7 SWAP1 SSTORE SWAP4 POP DUP4 SWAP2 DUP6 SWAP2 PUSH32 0x5E0BB1B708F1F76775812E0C51D4F8893968E6BF1A6776E92E97DA11615342F3 SWAP2 PUSH2 0x101E SWAP2 SWAP1 PUSH2 0x1790 JUMP JUMPDEST PUSH1 0x40 MLOAD DUP1 SWAP2 SUB SWAP1 LOG3 POP SWAP2 SWAP1 POP JUMP JUMPDEST CALLER PUSH1 0x0 SWAP1 DUP2 MSTORE PUSH1 0x5 PUSH1 0x20 MSTORE PUSH1 0x40 SWAP1 KECCAK256 SLOAD PUSH1 0xFF AND PUSH2 0x105B JUMPI PUSH1 0x40 MLOAD PUSH3 0x461BCD PUSH1 0xE5 SHL DUP2 MSTORE PUSH1 0x4 ADD PUSH2 0x583 SWAP1 PUSH2 0x21E2 JUMP JUMPDEST CALLER PUSH1 0x0 SWAP1 DUP2 MSTORE PUSH1 0x3 PUSH1 0x20 MSTORE PUSH1 0x40 SWAP1 KECCAK256 SLOAD PUSH1 0x1 PUSH1 0xA0 SHL SWAP1 DIV PUSH1 0xFF AND PUSH2 0x1091 JUMPI PUSH1 0x40 MLOAD PUSH3 0x461BCD PUSH1 0xE5 SHL DUP2 MSTORE PUSH1 0x4 ADD PUSH2 0x583 SWAP1 PUSH2 0x2454 JUMP JUMPDEST CALLER PUSH1 0x0 DUP2 DUP2 MSTORE PUSH1 0x3 PUSH1 0x20 MSTORE PUSH1 0x40 SWAP1 KECCAK256 PUSH1 0x1 ADD SLOAD SWAP1 PUSH2 0x10AE SWAP1 PUSH2 0x158A JUMP JUMPDEST CALLER PUSH1 0x1 PUSH1 0x1 PUSH1 0xA0 SHL SUB AND PUSH32 0xB4DFF15DD795DDC2A73EFB1F0245539FE1A46B50CFD29F8C7BFE8F2F810877C8 DUP3 PUSH1 0x40 MLOAD PUSH2 0x6E3 SWAP2 SWAP1 PUSH2 0x1790 JUMP JUMPDEST CALLER PUSH1 0x0 SWAP1 DUP2 MSTORE PUSH1 0x5 PUSH1 0x20 MSTORE PUSH1 0x40 SWAP1 KECCAK256 SLOAD PUSH1 0xFF AND PUSH2 0x1116 JUMPI PUSH1 0x40 MLOAD PUSH3 0x461BCD PUSH1 0xE5 SHL DUP2 MSTORE PUSH1 0x4 ADD PUSH2 0x583 SWAP1 PUSH2 0x21E2 JUMP JUMPDEST PUSH1 0x1 PUSH1 0x1 PUSH1 0xA0 SHL SUB DUP2 AND PUSH2 0x113C JUMPI PUSH1 0x40 MLOAD PUSH3 0x461BCD PUSH1 0xE5 SHL DUP2 MSTORE PUSH1 0x4 ADD PUSH2 0x583 SWAP1 PUSH2 0x2496 JUMP JUMPDEST CALLER PUSH1 0x1 PUSH1 0x1 PUSH1 0xA0 SHL SUB DUP3 AND SUB PUSH2 0x1164 JUMPI PUSH1 0x40 MLOAD PUSH3 0x461BCD PUSH1 0xE5 SHL DUP2 MSTORE PUSH1 0x4 ADD PUSH2 0x583 SWAP1 PUSH2 0x24D8 JUMP JUMPDEST PUSH1 0x1 PUSH1 0x1 PUSH1 0xA0 SHL SUB DUP2 AND PUSH1 0x0 SWAP1 DUP2 MSTORE PUSH1 0x5 PUSH1 0x20 MSTORE PUSH1 0x40 SWAP1 KECCAK256 SLOAD PUSH1 0xFF AND PUSH2 0x119C JUMPI PUSH1 0x40 MLOAD PUSH3 0x461BCD PUSH1 0xE5 SHL DUP2 MSTORE PUSH1 0x4 ADD PUSH2 0x583 SWAP1 PUSH2 0x2524 JUMP JUMPDEST CALLER PUSH1 0x0 SWAP1 DUP2 MSTORE PUSH1 0x4 PUSH1 0x20 MSTORE PUSH1 0x40 SWAP1 KECCAK256 SLOAD DUP1 PUSH2 0x11C9 JUMPI PUSH1 0x40 MLOAD PUSH3 0x461BCD PUSH1 0xE5 SHL DUP2 MSTORE PUSH1 0x4 ADD PUSH2 0x583 SWAP1 PUSH2 0x2566 JUMP JUMPDEST CALLER PUSH1 0x0 SWAP1 DUP2 MSTORE PUSH1 0x3 PUSH1 0x20 MSTORE PUSH1 0x40 SWAP1 KECCAK256 SLOAD PUSH1 0x1 PUSH1 0xA0 SHL SWAP1 DIV PUSH1 0xFF AND ISZERO PUSH2 0x11F1 JUMPI PUSH2 0x11F1 CALLER PUSH2 0x158A JUMP JUMPDEST PUSH1 0x1 PUSH1 0x1 PUSH1 0xA0 SHL SUB DUP3 AND PUSH1 0x0 SWAP1 DUP2 MSTORE PUSH1 0x4 PUSH1 0x20 MSTORE PUSH1 0x40 DUP2 KECCAK256 SLOAD PUSH2 0x1215 SWAP1 DUP4 SWAP1 PUSH2 0x201D JUMP JUMPDEST SWAP1 POP PUSH1 0x1 PUSH1 0x1 PUSH1 0x80 SHL SUB DUP2 GT ISZERO PUSH2 0x123E JUMPI PUSH1 0x40 MLOAD PUSH3 0x461BCD PUSH1 0xE5 SHL DUP2 MSTORE PUSH1 0x4 ADD PUSH2 0x583 SWAP1 PUSH2 0x25A8 JUMP JUMPDEST PUSH1 0x40 DUP1 MLOAD PUSH1 0x60 DUP2 ADD DUP3 MSTORE PUSH1 0x1 PUSH1 0x1 PUSH1 0xA0 SHL SUB DUP1 DUP7 AND DUP1 DUP4 MSTORE PUSH1 0x1 PUSH1 0x20 DUP1 DUP6 ADD DUP3 DUP2 MSTORE DUP6 DUP8 ADD DUP10 DUP2 MSTORE CALLER PUSH1 0x0 DUP2 DUP2 MSTORE PUSH1 0x3 DUP6 MSTORE DUP10 DUP2 KECCAK256 SWAP9 MLOAD DUP10 SLOAD SWAP5 MLOAD ISZERO ISZERO PUSH1 0x1 PUSH1 0xA0 SHL MUL PUSH1 0x1 PUSH1 0x1 PUSH1 0xA8 SHL SUB NOT SWAP1 SWAP6 AND SWAP9 AND SWAP8 SWAP1 SWAP8 OR SWAP3 SWAP1 SWAP3 OR DUP8 SSTORE MLOAD SWAP6 SWAP1 SWAP3 ADD SWAP5 SWAP1 SWAP5 SSTORE DUP2 DUP4 MSTORE PUSH1 0x4 SWAP1 SWAP4 MSTORE DUP4 DUP3 KECCAK256 DUP6 SWAP1 SSTORE DUP3 DUP3 MSTORE DUP4 DUP3 KECCAK256 SWAP2 SWAP1 SWAP2 SSTORE SWAP2 MLOAD PUSH32 0x4C12853BEEB24EBDE5F5B6F8757D257670BD10E740C1D43BAA60C5ED7090FA58 SWAP1 PUSH2 0xC0A SWAP1 DUP7 SWAP1 PUSH2 0x1790 JUMP JUMPDEST PUSH1 0x0 DUP1 PUSH1 0x0 DUP1 PUSH1 0x7 SLOAD DUP6 LT PUSH2 0x1310 JUMPI PUSH1 0x40 MLOAD PUSH3 0x461BCD PUSH1 0xE5 SHL DUP2 MSTORE PUSH1 0x4 ADD PUSH2 0x583 SWAP1 PUSH2 0x1B5C JUMP JUMPDEST POP POP POP PUSH1 0x0 SWAP2 DUP3 MSTORE POP PUSH1 0x2 PUSH1 0x20 MSTORE PUSH1 0x40 SWAP1 KECCAK256 PUSH1 0x4 DUP2 ADD SLOAD PUSH1 0x5 DUP3 ADD SLOAD PUSH1 0x6 SWAP1 SWAP3 ADD SLOAD PUSH1 0xFF PUSH2 0x100 DUP4 DIV DUP2 AND SWAP5 PUSH3 0x10000 SWAP1 SWAP4 DIV AND SWAP3 SWAP2 JUMP JUMPDEST PUSH1 0x60 PUSH1 0x0 DUP1 PUSH1 0x7 SLOAD DUP5 LT PUSH2 0x136E JUMPI PUSH1 0x40 MLOAD PUSH3 0x461BCD PUSH1 0xE5 SHL DUP2 MSTORE PUSH1 0x4 ADD PUSH2 0x583 SWAP1 PUSH2 0x1B5C JUMP JUMPDEST PUSH1 0x0 DUP5 DUP2 MSTORE PUSH1 0x2 PUSH1 0x20 MSTORE PUSH1 0x40 SWAP1 KECCAK256 PUSH1 0x3 DUP2 ADD SLOAD PUSH1 0x4 DUP3 ADD SLOAD DUP3 SLOAD DUP4 SWAP3 SWAP2 PUSH1 0xFF AND SWAP1 DUP4 SWAP1 PUSH2 0x139A SWAP1 PUSH2 0x1B06 JUMP JUMPDEST DUP1 PUSH1 0x1F ADD PUSH1 0x20 DUP1 SWAP2 DIV MUL PUSH1 0x20 ADD PUSH1 0x40 MLOAD SWAP1 DUP2 ADD PUSH1 0x40 MSTORE DUP1 SWAP3 SWAP2 SWAP1 DUP2 DUP2 MSTORE PUSH1 0x20 ADD DUP3 DUP1 SLOAD PUSH2 0x13C6 SWAP1 PUSH2 0x1B06 JUMP JUMPDEST DUP1 ISZERO PUSH2 0x1413 JUMPI DUP1 PUSH1 0x1F LT PUSH2 0x13E8 JUMPI PUSH2 0x100 DUP1 DUP4 SLOAD DIV MUL DUP4 MSTORE SWAP2 PUSH1 0x20 ADD SWAP2 PUSH2 0x1413 JUMP JUMPDEST DUP3 ADD SWAP2 SWAP1 PUSH1 0x0 MSTORE PUSH1 0x20 PUSH1 0x0 KECCAK256 SWAP1 JUMPDEST DUP2 SLOAD DUP2 MSTORE SWAP1 PUSH1 0x1 ADD SWAP1 PUSH1 0x20 ADD DUP1 DUP4 GT PUSH2 0x13F6 JUMPI DUP3 SWAP1 SUB PUSH1 0x1F AND DUP3 ADD SWAP2 JUMPDEST POP POP POP POP POP SWAP3 POP SWAP4 POP SWAP4 POP SWAP4 POP POP SWAP2 SWAP4 SWAP1 SWAP3 POP JUMP JUMPDEST PUSH1 0x0 DUP1 PUSH2 0x1433 PUSH2 0x14E3 JUMP JUMPDEST PUSH1 0x7 SLOAD DUP7 LT PUSH2 0x1454 JUMPI PUSH1 0x40 MLOAD PUSH3 0x461BCD PUSH1 0xE5 SHL DUP2 MSTORE PUSH1 0x4 ADD PUSH2 0x583 SWAP1 PUSH2 0x1B5C JUMP JUMPDEST PUSH1 0x0 DUP7 DUP2 MSTORE PUSH1 0x2 PUSH1 0x20 MSTORE PUSH1 0x40 SWAP1 KECCAK256 PUSH1 0x3 ADD SLOAD TIMESTAMP GT PUSH2 0x1484 JUMPI PUSH1 0x40 MLOAD PUSH3 0x461BCD PUSH1 0xE5 SHL DUP2 MSTORE PUSH1 0x4 ADD PUSH2 0x583 SWAP1 PUSH2 0x1B94 JUMP JUMPDEST POP POP POP PUSH1 0x0 SWAP3 DUP4 MSTORE POP POP PUSH1 0x8 PUSH1 0x20 SWAP1 DUP2 MSTORE PUSH1 0x40 DUP1 DUP4 KECCAK256 SLOAD PUSH1 0x9 SWAP1 SWAP3 MSTORE SWAP1 SWAP2 KECCAK256 SLOAD SWAP1 SWAP2 JUMP JUMPDEST PUSH2 0x14B0 PUSH2 0x14E3 JUMP JUMPDEST PUSH1 0x1 PUSH1 0x1 PUSH1 0xA0 SHL SUB DUP2 AND PUSH2 0x14DA JUMPI PUSH1 0x0 PUSH1 0x40 MLOAD PUSH4 0x1E4FBDF7 PUSH1 0xE0 SHL DUP2 MSTORE PUSH1 0x4 ADD PUSH2 0x583 SWAP2 SWAP1 PUSH2 0x19F2 JUMP JUMPDEST PUSH2 0xADE DUP2 PUSH2 0x153A JUMP JUMPDEST PUSH1 0x0 SLOAD PUSH1 0x1 PUSH1 0x1 PUSH1 0xA0 SHL SUB AND CALLER EQ PUSH2 0xEED JUMPI CALLER PUSH1 0x40 MLOAD PUSH4 0x118CDAA7 PUSH1 0xE0 SHL DUP2 MSTORE PUSH1 0x4 ADD PUSH2 0x583 SWAP2 SWAP1 PUSH2 0x19F2 JUMP JUMPDEST PUSH1 0x2 PUSH1 0x1 SLOAD SUB PUSH2 0x1533 JUMPI PUSH1 0x40 MLOAD PUSH4 0x3EE5AEB5 PUSH1 0xE0 SHL DUP2 MSTORE PUSH1 0x4 ADD PUSH1 0x40 MLOAD DUP1 SWAP2 SUB SWAP1 REVERT JUMPDEST PUSH1 0x2 PUSH1 0x1 SSTORE JUMP JUMPDEST PUSH1 0x0 DUP1 SLOAD PUSH1 0x1 PUSH1 0x1 PUSH1 0xA0 SHL SUB DUP4 DUP2 AND PUSH1 0x1 PUSH1 0x1 PUSH1 0xA0 SHL SUB NOT DUP4 AND DUP2 OR DUP5 SSTORE PUSH1 0x40 MLOAD SWAP2 SWAP1 SWAP3 AND SWAP3 DUP4 SWAP2 PUSH32 0x8BE0079C531659141344CD1FD0A4F28419497F9722A3DAAFE3B4186F6B6457E0 SWAP2 SWAP1 LOG3 POP POP JUMP JUMPDEST PUSH1 0x1 PUSH1 0x1 PUSH1 0xA0 SHL SUB DUP1 DUP3 AND PUSH1 0x0 SWAP1 DUP2 MSTORE PUSH1 0x3 PUSH1 0x20 SWAP1 DUP2 MSTORE PUSH1 0x40 DUP1 DUP4 KECCAK256 DUP1 SLOAD PUSH1 0x1 DUP3 ADD SLOAD SWAP6 AND DUP1 DUP6 MSTORE PUSH1 0x4 SWAP1 SWAP4 MSTORE SWAP3 KECCAK256 SLOAD SWAP2 SWAP3 SWAP1 SWAP2 DUP2 GT ISZERO PUSH2 0x15DD JUMPI PUSH1 0x40 MLOAD PUSH3 0x461BCD PUSH1 0xE5 SHL DUP2 MSTORE PUSH1 0x4 ADD PUSH2 0x583 SWAP1 PUSH2 0x25EA JUMP JUMPDEST PUSH1 0x1 PUSH1 0x1 PUSH1 0xA0 SHL SUB DUP3 AND PUSH1 0x0 SWAP1 DUP2 MSTORE PUSH1 0x4 PUSH1 0x20 MSTORE PUSH1 0x40 DUP2 KECCAK256 DUP1 SLOAD DUP4 SWAP3 SWAP1 PUSH2 0x1605 SWAP1 DUP5 SWAP1 PUSH2 0x25FA JUMP JUMPDEST SWAP1 SWAP2 SSTORE POP POP PUSH1 0x1 PUSH1 0x1 PUSH1 0xA0 SHL SUB SWAP1 SWAP4 AND PUSH1 0x0 SWAP1 DUP2 MSTORE PUSH1 0x4 PUSH1 0x20 MSTORE PUSH1 0x40 DUP2 KECCAK256 SWAP4 SWAP1 SWAP4 SSTORE POP DUP1 SLOAD PUSH1 0x1 PUSH1 0x1 PUSH1 0xA8 SHL SUB NOT AND DUP2 SSTORE PUSH1 0x1 ADD SSTORE JUMP JUMPDEST DUP1 JUMPDEST DUP2 EQ PUSH2 0xADE JUMPI PUSH1 0x0 DUP1 REVERT JUMPDEST DUP1 CALLDATALOAD PUSH2 0x87A DUP2 PUSH2 0x163C JUMP JUMPDEST PUSH1 0x0 PUSH1 0x20 DUP3 DUP5 SUB SLT ISZERO PUSH2 0x1669 JUMPI PUSH2 0x1669 PUSH1 0x0 DUP1 REVERT JUMPDEST PUSH1 0x0 PUSH2 0x1675 DUP5 DUP5 PUSH2 0x1649 JUMP JUMPDEST SWAP5 SWAP4 POP POP POP POP JUMP JUMPDEST PUSH1 0x0 JUMPDEST DUP4 DUP2 LT ISZERO PUSH2 0x1698 JUMPI DUP2 DUP2 ADD MLOAD DUP4 DUP3 ADD MSTORE PUSH1 0x20 ADD PUSH2 0x1680 JUMP JUMPDEST POP POP PUSH1 0x0 SWAP2 ADD MSTORE JUMP JUMPDEST PUSH1 0x0 PUSH2 0x16AB DUP3 MLOAD SWAP1 JUMP JUMPDEST DUP1 DUP5 MSTORE PUSH1 0x20 DUP5 ADD SWAP4 POP PUSH2 0x16C2 DUP2 DUP6 PUSH1 0x20 DUP7 ADD PUSH2 0x167D JUMP JUMPDEST PUSH1 0x1F ADD PUSH1 0x1F NOT AND SWAP3 SWAP1 SWAP3 ADD SWAP3 SWAP2 POP POP JUMP JUMPDEST DUP1 JUMPDEST DUP3 MSTORE POP POP JUMP JUMPDEST DUP1 ISZERO ISZERO PUSH2 0x16D5 JUMP JUMPDEST PUSH2 0x120 DUP1 DUP3 MSTORE DUP2 ADD PUSH2 0x16F5 DUP2 DUP13 PUSH2 0x16A1 JUMP JUMPDEST SWAP1 POP PUSH2 0x1704 PUSH1 0x20 DUP4 ADD DUP12 PUSH2 0x16D3 JUMP JUMPDEST PUSH2 0x1711 PUSH1 0x40 DUP4 ADD DUP11 PUSH2 0x16D3 JUMP JUMPDEST PUSH2 0x171E PUSH1 0x60 DUP4 ADD DUP10 PUSH2 0x16D3 JUMP JUMPDEST PUSH2 0x172B PUSH1 0x80 DUP4 ADD DUP9 PUSH2 0x16DB JUMP JUMPDEST PUSH2 0x1738 PUSH1 0xA0 DUP4 ADD DUP8 PUSH2 0x16DB JUMP JUMPDEST PUSH2 0x1745 PUSH1 0xC0 DUP4 ADD DUP7 PUSH2 0x16DB JUMP JUMPDEST PUSH2 0x1752 PUSH1 0xE0 DUP4 ADD DUP6 PUSH2 0x16D3 JUMP JUMPDEST PUSH2 0x1760 PUSH2 0x100 DUP4 ADD DUP5 PUSH2 0x16D3 JUMP JUMPDEST SWAP11 SWAP10 POP POP POP POP POP POP POP POP POP POP JUMP JUMPDEST PUSH1 0x40 DUP2 ADD PUSH2 0x177C DUP3 DUP6 PUSH2 0x16D3 JUMP JUMPDEST PUSH2 0x1789 PUSH1 0x20 DUP4 ADD DUP5 PUSH2 0x16D3 JUMP JUMPDEST SWAP4 SWAP3 POP POP POP JUMP JUMPDEST PUSH1 0x20 DUP2 ADD PUSH2 0x87A DUP3 DUP5 PUSH2 0x16D3 JUMP JUMPDEST PUSH1 0x0 PUSH1 0x1 PUSH1 0x1 PUSH1 0xA0 SHL SUB DUP3 AND PUSH2 0x87A JUMP JUMPDEST PUSH2 0x163E DUP2 PUSH2 0x179E JUMP JUMPDEST DUP1 CALLDATALOAD PUSH2 0x87A DUP2 PUSH2 0x17AF JUMP JUMPDEST PUSH1 0x0 PUSH1 0x20 DUP3 DUP5 SUB SLT ISZERO PUSH2 0x17D8 JUMPI PUSH2 0x17D8 PUSH1 0x0 DUP1 REVERT JUMPDEST PUSH1 0x0 PUSH2 0x1675 DUP5 DUP5 PUSH2 0x17B8 JUMP JUMPDEST PUSH2 0x16D5 DUP2 PUSH2 0x179E JUMP JUMPDEST PUSH1 0x40 DUP2 ADD PUSH2 0x17FB DUP3 DUP6 PUSH2 0x17E4 JUMP JUMPDEST PUSH2 0x1789 PUSH1 0x20 DUP4 ADD DUP5 PUSH2 0x16DB JUMP JUMPDEST PUSH1 0x0 DUP1 DUP4 PUSH1 0x1F DUP5 ADD SLT PUSH2 0x181D JUMPI PUSH2 0x181D PUSH1 0x0 DUP1 REVERT JUMPDEST POP DUP2 CALLDATALOAD PUSH8 0xFFFFFFFFFFFFFFFF DUP2 GT ISZERO PUSH2 0x1838 JUMPI PUSH2 0x1838 PUSH1 0x0 DUP1 REVERT JUMPDEST PUSH1 0x20 DUP4 ADD SWAP2 POP DUP4 PUSH1 0x1 DUP3 MUL DUP4 ADD GT ISZERO PUSH2 0x1853 JUMPI PUSH2 0x1853 PUSH1 0x0 DUP1 REVERT JUMPDEST SWAP3 POP SWAP3 SWAP1 POP JUMP JUMPDEST PUSH1 0x0 DUP1 PUSH1 0x0 DUP1 PUSH1 0x0 PUSH1 0x80 DUP7 DUP9 SUB SLT ISZERO PUSH2 0x1875 JUMPI PUSH2 0x1875 PUSH1 0x0 DUP1 REVERT JUMPDEST PUSH1 0x0 PUSH2 0x1881 DUP9 DUP9 PUSH2 0x1649 JUMP JUMPDEST SWAP6 POP POP PUSH1 0x20 PUSH2 0x1892 DUP9 DUP3 DUP10 ADD PUSH2 0x1649 JUMP JUMPDEST SWAP5 POP POP PUSH1 0x40 PUSH2 0x18A3 DUP9 DUP3 DUP10 ADD PUSH2 0x1649 JUMP JUMPDEST SWAP4 POP POP PUSH1 0x60 DUP7 ADD CALLDATALOAD PUSH8 0xFFFFFFFFFFFFFFFF DUP2 GT ISZERO PUSH2 0x18C3 JUMPI PUSH2 0x18C3 PUSH1 0x0 DUP1 REVERT JUMPDEST PUSH2 0x18CF DUP9 DUP3 DUP10 ADD PUSH2 0x1808 JUMP JUMPDEST SWAP3 POP SWAP3 POP POP SWAP3 SWAP6 POP SWAP3 SWAP6 SWAP1 SWAP4 POP JUMP JUMPDEST PUSH1 0x0 DUP1 PUSH1 0x40 DUP4 DUP6 SUB SLT ISZERO PUSH2 0x18F4 JUMPI PUSH2 0x18F4 PUSH1 0x0 DUP1 REVERT JUMPDEST PUSH1 0x0 PUSH2 0x1900 DUP6 DUP6 PUSH2 0x1649 JUMP JUMPDEST SWAP3 POP POP PUSH1 0x20 PUSH2 0x1911 DUP6 DUP3 DUP7 ADD PUSH2 0x17B8 JUMP JUMPDEST SWAP2 POP POP SWAP3 POP SWAP3 SWAP1 POP JUMP JUMPDEST PUSH1 0x20 DUP2 ADD PUSH2 0x87A DUP3 DUP5 PUSH2 0x16DB JUMP JUMPDEST PUSH1 0x0 DUP1 PUSH1 0x20 DUP4 DUP6 SUB SLT ISZERO PUSH2 0x193F JUMPI PUSH2 0x193F PUSH1 0x0 DUP1 REVERT JUMPDEST DUP3 CALLDATALOAD PUSH8 0xFFFFFFFFFFFFFFFF DUP2 GT ISZERO PUSH2 0x1959 JUMPI PUSH2 0x1959 PUSH1 0x0 DUP1 REVERT JUMPDEST PUSH2 0x1965 DUP6 DUP3 DUP7 ADD PUSH2 0x1808 JUMP JUMPDEST SWAP3 POP SWAP3 POP POP SWAP3 POP SWAP3 SWAP1 POP JUMP JUMPDEST DUP1 ISZERO ISZERO PUSH2 0x163E JUMP JUMPDEST DUP1 CALLDATALOAD PUSH2 0x87A DUP2 PUSH2 0x1971 JUMP JUMPDEST PUSH1 0x0 DUP1 PUSH1 0x0 DUP1 PUSH1 0x60 DUP6 DUP8 SUB SLT ISZERO PUSH2 0x199D JUMPI PUSH2 0x199D PUSH1 0x0 DUP1 REVERT JUMPDEST PUSH1 0x0 PUSH2 0x19A9 DUP8 DUP8 PUSH2 0x1649 JUMP JUMPDEST SWAP5 POP POP PUSH1 0x20 PUSH2 0x19BA DUP8 DUP3 DUP9 ADD PUSH2 0x1979 JUMP JUMPDEST SWAP4 POP POP PUSH1 0x40 DUP6 ADD CALLDATALOAD PUSH8 0xFFFFFFFFFFFFFFFF DUP2 GT ISZERO PUSH2 0x19DA JUMPI PUSH2 0x19DA PUSH1 0x0 DUP1 REVERT JUMPDEST PUSH2 0x19E6 DUP8 DUP3 DUP9 ADD PUSH2 0x1808 JUMP JUMPDEST SWAP6 SWAP9 SWAP5 SWAP8 POP SWAP6 POP POP POP POP JUMP JUMPDEST PUSH1 0x20 DUP2 ADD PUSH2 0x87A DUP3 DUP5 PUSH2 0x17E4 JUMP JUMPDEST PUSH1 0x80 DUP2 ADD PUSH2 0x1A0E DUP3 DUP8 PUSH2 0x16DB JUMP JUMPDEST PUSH2 0x1A1B PUSH1 0x20 DUP4 ADD DUP7 PUSH2 0x16DB JUMP JUMPDEST PUSH2 0x1A28 PUSH1 0x40 DUP4 ADD DUP6 PUSH2 0x16D3 JUMP JUMPDEST PUSH2 0x1A35 PUSH1 0x60 DUP4 ADD DUP5 PUSH2 0x16D3 JUMP JUMPDEST SWAP6 SWAP5 POP POP POP POP POP JUMP JUMPDEST PUSH1 0x60 DUP2 ADD PUSH2 0x1A4C DUP3 DUP7 PUSH2 0x17E4 JUMP JUMPDEST PUSH2 0x1A59 PUSH1 0x20 DUP4 ADD DUP6 PUSH2 0x16DB JUMP JUMPDEST PUSH2 0x1675 PUSH1 0x40 DUP4 ADD DUP5 PUSH2 0x16D3 JUMP JUMPDEST PUSH1 0x60 DUP1 DUP3 MSTORE DUP2 ADD PUSH2 0x1A77 DUP2 DUP7 PUSH2 0x16A1 JUMP JUMPDEST SWAP1 POP PUSH2 0x1A86 PUSH1 0x20 DUP4 ADD DUP6 PUSH2 0x16D3 JUMP JUMPDEST PUSH2 0x1675 PUSH1 0x40 DUP4 ADD DUP5 PUSH2 0x16DB JUMP JUMPDEST PUSH1 0x0 DUP1 PUSH1 0x0 DUP1 PUSH1 0x60 DUP6 DUP8 SUB SLT ISZERO PUSH2 0x1AAC JUMPI PUSH2 0x1AAC PUSH1 0x0 DUP1 REVERT JUMPDEST PUSH1 0x0 PUSH2 0x1AB8 DUP8 DUP8 PUSH2 0x1649 JUMP JUMPDEST SWAP5 POP POP PUSH1 0x20 PUSH2 0x19BA DUP8 DUP3 DUP9 ADD PUSH2 0x1649 JUMP JUMPDEST PUSH4 0xFFFFFFFF DUP2 AND PUSH2 0x16D5 JUMP JUMPDEST PUSH1 0x40 DUP2 ADD PUSH2 0x1AE3 DUP3 DUP6 PUSH2 0x1AC9 JUMP JUMPDEST PUSH2 0x1789 PUSH1 0x20 DUP4 ADD DUP5 PUSH2 0x1AC9 JUMP JUMPDEST PUSH4 0x4E487B71 PUSH1 0xE0 SHL PUSH1 0x0 MSTORE PUSH1 0x22 PUSH1 0x4 MSTORE PUSH1 0x24 PUSH1 0x0 REVERT JUMPDEST PUSH1 0x2 DUP2 DIV PUSH1 0x1 DUP3 AND DUP1 PUSH2 0x1B1A JUMPI PUSH1 0x7F DUP3 AND SWAP2 POP JUMPDEST PUSH1 0x20 DUP3 LT DUP2 SUB PUSH2 0x1B2C JUMPI PUSH2 0x1B2C PUSH2 0x1AF0 JUMP JUMPDEST POP SWAP2 SWAP1 POP JUMP JUMPDEST PUSH1 0x13 DUP2 MSTORE PUSH1 0x20 DUP2 ADD PUSH19 0x125B9D985B1A59081C1C9BDC1BDCD85B081251 PUSH1 0x6A SHL DUP2 MSTORE SWAP1 POP JUMPDEST PUSH1 0x20 ADD SWAP1 JUMP JUMPDEST PUSH1 0x20 DUP1 DUP3 MSTORE DUP2 ADD PUSH2 0x87A DUP2 PUSH2 0x1B32 JUMP JUMPDEST PUSH1 0x13 DUP2 MSTORE PUSH1 0x20 DUP2 ADD PUSH19 0x566F74696E67207374696C6C20616374697665 PUSH1 0x68 SHL DUP2 MSTORE SWAP1 POP PUSH2 0x1B56 JUMP JUMPDEST PUSH1 0x20 DUP1 DUP3 MSTORE DUP2 ADD PUSH2 0x87A DUP2 PUSH2 0x1B6C JUMP JUMPDEST PUSH1 0x15 DUP2 MSTORE PUSH1 0x20 DUP2 ADD PUSH21 0x496E76616C696420766F7465722061646472657373 PUSH1 0x58 SHL DUP2 MSTORE SWAP1 POP PUSH2 0x1B56 JUMP JUMPDEST PUSH1 0x20 DUP1 DUP3 MSTORE DUP2 ADD PUSH2 0x87A DUP2 PUSH2 0x1BA4 JUMP JUMPDEST PUSH1 0x18 DUP2 MSTORE PUSH1 0x20 DUP2 ADD PUSH32 0x566F74657220616C726561647920726567697374657265640000000000000000 DUP2 MSTORE SWAP1 POP PUSH2 0x1B56 JUMP JUMPDEST PUSH1 0x20 DUP1 DUP3 MSTORE DUP2 ADD PUSH2 0x87A DUP2 PUSH2 0x1BDE JUMP JUMPDEST PUSH1 0x0 PUSH2 0x87A PUSH2 0x1C2C DUP4 DUP2 JUMP JUMPDEST SWAP1 JUMP JUMPDEST PUSH2 0x16D5 DUP2 PUSH2 0x1C20 JUMP JUMPDEST PUSH1 0x20 DUP2 ADD PUSH2 0x87A DUP3 DUP5 PUSH2 0x1C2F JUMP JUMPDEST PUSH1 0x12 DUP2 MSTORE PUSH1 0x20 DUP2 ADD PUSH18 0x125B9D985B1A59081C995C5D595CDD081251 PUSH1 0x72 SHL DUP2 MSTORE SWAP1 POP PUSH2 0x1B56 JUMP JUMPDEST PUSH1 0x20 DUP1 DUP3 MSTORE DUP2 ADD PUSH2 0x87A DUP2 PUSH2 0x1C46 JUMP JUMPDEST PUSH1 0x17 DUP2 MSTORE PUSH1 0x20 DUP2 ADD PUSH32 0x4E6F2064656372797074696F6E20726571756573746564000000000000000000 DUP2 MSTORE SWAP1 POP PUSH2 0x1B56 JUMP JUMPDEST PUSH1 0x20 DUP1 DUP3 MSTORE DUP2 ADD PUSH2 0x87A DUP2 PUSH2 0x1C7D JUMP JUMPDEST PUSH1 0x13 DUP2 MSTORE PUSH1 0x20 DUP2 ADD PUSH19 0xA4CAE2EACAE6E840928840DAD2E6DAC2E8C6D PUSH1 0x6B SHL DUP2 MSTORE SWAP1 POP PUSH2 0x1B56 JUMP JUMPDEST PUSH1 0x20 DUP1 DUP3 MSTORE DUP2 ADD PUSH2 0x87A DUP2 PUSH2 0x1CBF JUMP JUMPDEST PUSH1 0x19 DUP2 MSTORE PUSH1 0x20 DUP2 ADD PUSH32 0x44656372797074696F6E20616C7265616479206661696C656400000000000000 DUP2 MSTORE SWAP1 POP PUSH2 0x1B56 JUMP JUMPDEST PUSH1 0x20 DUP1 DUP3 MSTORE DUP2 ADD PUSH2 0x87A DUP2 PUSH2 0x1CF7 JUMP JUMPDEST PUSH1 0x12 DUP2 MSTORE PUSH1 0x20 DUP2 ADD PUSH18 0xB2CAE640ECDEE8CAE640DAD2E6DAC2E8C6D PUSH1 0x73 SHL DUP2 MSTORE SWAP1 POP PUSH2 0x1B56 JUMP JUMPDEST PUSH1 0x20 DUP1 DUP3 MSTORE DUP2 ADD PUSH2 0x87A DUP2 PUSH2 0x1D39 JUMP JUMPDEST PUSH1 0x11 DUP2 MSTORE PUSH1 0x20 DUP2 ADD PUSH17 0x9CDE40ECDEE8CAE640DAD2E6DAC2E8C6D PUSH1 0x7B SHL DUP2 MSTORE SWAP1 POP PUSH2 0x1B56 JUMP JUMPDEST PUSH1 0x20 DUP1 DUP3 MSTORE DUP2 ADD PUSH2 0x87A DUP2 PUSH2 0x1D70 JUMP JUMPDEST PUSH1 0x1B DUP2 MSTORE PUSH1 0x20 DUP2 ADD PUSH32 0x4465736372697074696F6E2063616E6E6F7420626520656D7074790000000000 DUP2 MSTORE SWAP1 POP PUSH2 0x1B56 JUMP JUMPDEST PUSH1 0x20 DUP1 DUP3 MSTORE DUP2 ADD PUSH2 0x87A DUP2 PUSH2 0x1DA6 JUMP JUMPDEST PUSH1 0x14 DUP2 MSTORE PUSH1 0x20 DUP2 ADD PUSH20 0x4465736372697074696F6E20746F6F206C6F6E67 PUSH1 0x60 SHL DUP2 MSTORE SWAP1 POP PUSH2 0x1B56 JUMP JUMPDEST PUSH1 0x20 DUP1 DUP3 MSTORE DUP2 ADD PUSH2 0x87A DUP2 PUSH2 0x1DE8 JUMP JUMPDEST PUSH4 0x4E487B71 PUSH1 0xE0 SHL PUSH1 0x0 MSTORE PUSH1 0x11 PUSH1 0x4 MSTORE PUSH1 0x24 PUSH1 0x0 REVERT JUMPDEST PUSH1 0x0 PUSH1 0x1 DUP3 ADD PUSH2 0x1E49 JUMPI PUSH2 0x1E49 PUSH2 0x1E21 JUMP JUMPDEST POP PUSH1 0x1 ADD SWAP1 JUMP JUMPDEST PUSH4 0x4E487B71 PUSH1 0xE0 SHL PUSH1 0x0 MSTORE PUSH1 0x41 PUSH1 0x4 MSTORE PUSH1 0x24 PUSH1 0x0 REVERT JUMPDEST PUSH2 0x1E6F DUP4 PUSH2 0x1C20 JUMP JUMPDEST DUP2 SLOAD PUSH1 0x0 NOT PUSH1 0x8 SWAP5 SWAP1 SWAP5 MUL SWAP4 DUP5 SHL NOT AND SWAP3 SHL SWAP2 SWAP1 SWAP2 OR SWAP1 SSTORE POP JUMP JUMPDEST PUSH1 0x0 PUSH2 0x1E97 DUP2 DUP5 DUP5 PUSH2 0x1E66 JUMP JUMPDEST POP POP POP JUMP JUMPDEST DUP2 DUP2 LT ISZERO PUSH2 0x1EB7 JUMPI PUSH2 0x1EAF PUSH1 0x0 DUP3 PUSH2 0x1E8A JUMP JUMPDEST PUSH1 0x1 ADD PUSH2 0x1E9C JUMP JUMPDEST POP POP JUMP JUMPDEST PUSH1 0x1F DUP3 GT ISZERO PUSH2 0x1E97 JUMPI PUSH1 0x0 DUP2 DUP2 MSTORE PUSH1 0x20 SWAP1 KECCAK256 PUSH1 0x20 PUSH1 0x1F DUP6 ADD DIV DUP2 ADD PUSH1 0x20 DUP6 LT ISZERO PUSH2 0x1EE2 JUMPI POP DUP1 JUMPDEST PUSH2 0x1EF4 PUSH1 0x20 PUSH1 0x1F DUP7 ADD DIV DUP4 ADD DUP3 PUSH2 0x1E9C JUMP JUMPDEST POP POP POP POP POP JUMP JUMPDEST DUP3 PUSH8 0xFFFFFFFFFFFFFFFF DUP2 GT ISZERO PUSH2 0x1F14 JUMPI PUSH2 0x1F14 PUSH2 0x1E50 JUMP JUMPDEST PUSH2 0x1F1E DUP3 SLOAD PUSH2 0x1B06 JUMP JUMPDEST PUSH2 0x1F29 DUP3 DUP3 DUP6 PUSH2 0x1EBB JUMP JUMPDEST POP PUSH1 0x0 PUSH1 0x1F DUP3 GT PUSH1 0x1 DUP2 EQ PUSH2 0x1F5E JUMPI PUSH1 0x0 DUP4 ISZERO PUSH2 0x1F46 JUMPI POP DUP5 DUP3 ADD CALLDATALOAD JUMPDEST PUSH1 0x0 NOT PUSH1 0x8 DUP6 MUL SHR NOT DUP2 AND PUSH1 0x2 DUP6 MUL OR DUP6 SSTORE POP PUSH2 0x1FB8 JUMP JUMPDEST PUSH1 0x0 DUP5 DUP2 MSTORE PUSH1 0x20 SWAP1 KECCAK256 PUSH1 0x1F NOT DUP5 AND SWAP1 DUP4 JUMPDEST DUP3 DUP2 LT ISZERO PUSH2 0x1F8F JUMPI DUP8 DUP6 ADD CALLDATALOAD DUP3 SSTORE PUSH1 0x20 SWAP5 DUP6 ADD SWAP5 PUSH1 0x1 SWAP1 SWAP3 ADD SWAP2 ADD PUSH2 0x1F6F JUMP JUMPDEST POP DUP5 DUP3 LT ISZERO PUSH2 0x1FAC JUMPI PUSH1 0x0 NOT PUSH1 0x1F DUP7 AND PUSH1 0x8 MUL SHR NOT DUP5 DUP9 ADD CALLDATALOAD AND DUP2 SSTORE JUMPDEST POP POP PUSH1 0x1 PUSH1 0x2 DUP5 MUL ADD DUP5 SSTORE JUMPDEST POP POP POP POP POP POP JUMP JUMPDEST DUP1 PUSH2 0x16D5 JUMP JUMPDEST PUSH14 0x656E637279707465645F7965735F PUSH1 0x90 SHL DUP2 MSTORE PUSH1 0xE DUP2 ADD JUMPDEST SWAP1 POP PUSH2 0x1FEB DUP2 DUP5 PUSH2 0x1FC0 JUMP JUMPDEST PUSH1 0x20 ADD PUSH2 0x1FF8 DUP2 DUP4 PUSH2 0x1FC0 JUMP JUMPDEST PUSH1 0x20 ADD SWAP3 SWAP2 POP POP JUMP JUMPDEST PUSH13 0x656E637279707465645F6E6F5F PUSH1 0x98 SHL DUP2 MSTORE PUSH1 0xD DUP2 ADD PUSH2 0x1FDF JUMP JUMPDEST DUP1 DUP3 ADD DUP1 DUP3 GT ISZERO PUSH2 0x87A JUMPI PUSH2 0x87A PUSH2 0x1E21 JUMP JUMPDEST DUP3 DUP2 DUP4 CALLDATACOPY POP PUSH1 0x0 SWAP2 ADD MSTORE JUMP JUMPDEST DUP2 DUP4 MSTORE PUSH1 0x20 DUP4 ADD SWAP3 POP PUSH2 0x2050 DUP3 DUP5 DUP4 PUSH2 0x2030 JUMP JUMPDEST POP PUSH1 0x1F ADD PUSH1 0x1F NOT AND ADD SWAP1 JUMP JUMPDEST PUSH1 0x40 DUP1 DUP3 MSTORE DUP2 ADD PUSH2 0x206E DUP2 DUP6 DUP8 PUSH2 0x203C JUMP JUMPDEST SWAP1 POP PUSH2 0x1675 PUSH1 0x20 DUP4 ADD DUP5 PUSH2 0x16D3 JUMP JUMPDEST PUSH1 0x15 DUP2 MSTORE PUSH1 0x20 DUP2 ADD PUSH21 0x111958DC9E5C1D1A5BDB881B9BDD0819985A5B1959 PUSH1 0x5A SHL DUP2 MSTORE SWAP1 POP PUSH2 0x1B56 JUMP JUMPDEST PUSH1 0x20 DUP1 DUP3 MSTORE DUP2 ADD PUSH2 0x87A DUP2 PUSH2 0x207D JUMP JUMPDEST PUSH1 0x1D DUP2 MSTORE PUSH1 0x20 DUP2 ADD PUSH32 0x446964206E6F7420766F7465206F6E20746869732070726F706F73616C000000 DUP2 MSTORE SWAP1 POP PUSH2 0x1B56 JUMP JUMPDEST PUSH1 0x20 DUP1 DUP3 MSTORE DUP2 ADD PUSH2 0x87A DUP2 PUSH2 0x20B7 JUMP JUMPDEST PUSH1 0x15 DUP2 MSTORE PUSH1 0x20 DUP2 ADD PUSH21 0x50726F706F73616C207374696C6C20616374697665 PUSH1 0x58 SHL DUP2 MSTORE SWAP1 POP PUSH2 0x1B56 JUMP JUMPDEST PUSH1 0x20 DUP1 DUP3 MSTORE DUP2 ADD PUSH2 0x87A DUP2 PUSH2 0x20F9 JUMP JUMPDEST PUSH1 0x1B DUP2 MSTORE PUSH1 0x20 DUP2 ADD PUSH32 0x4F6E6C79206F776E6572206F722061667465722074696D656F75740000000000 DUP2 MSTORE SWAP1 POP PUSH2 0x1B56 JUMP JUMPDEST PUSH1 0x20 DUP1 DUP3 MSTORE DUP2 ADD PUSH2 0x87A DUP2 PUSH2 0x2133 JUMP JUMPDEST PUSH1 0x19 DUP2 MSTORE PUSH1 0x20 DUP2 ADD PUSH32 0x54696D656F7574206F72206D616E75616C206661696C75726500000000000000 DUP2 MSTORE SWAP1 POP PUSH2 0x1B56 JUMP JUMPDEST PUSH1 0x20 DUP1 DUP3 MSTORE DUP2 ADD PUSH2 0x87A DUP2 PUSH2 0x2175 JUMP JUMPDEST PUSH1 0x16 DUP2 MSTORE PUSH1 0x20 DUP2 ADD PUSH22 0x2737BA1030903932B3B4B9BA32B932B2103B37BA32B9 PUSH1 0x51 SHL DUP2 MSTORE SWAP1 POP PUSH2 0x1B56 JUMP JUMPDEST PUSH1 0x20 DUP1 DUP3 MSTORE DUP2 ADD PUSH2 0x87A DUP2 PUSH2 0x21B7 JUMP JUMPDEST PUSH1 0x13 DUP2 MSTORE PUSH1 0x20 DUP2 ADD PUSH19 0x50726F706F73616C206E6F7420616374697665 PUSH1 0x68 SHL DUP2 MSTORE SWAP1 POP PUSH2 0x1B56 JUMP JUMPDEST PUSH1 0x20 DUP1 DUP3 MSTORE DUP2 ADD PUSH2 0x87A DUP2 PUSH2 0x21F2 JUMP JUMPDEST PUSH1 0x13 DUP2 MSTORE PUSH1 0x20 DUP2 ADD PUSH19 0x159BDD1A5B99C81C195C9A5BD908195B991959 PUSH1 0x6A SHL DUP2 MSTORE SWAP1 POP PUSH2 0x1B56 JUMP JUMPDEST PUSH1 0x20 DUP1 DUP3 MSTORE DUP2 ADD PUSH2 0x87A DUP2 PUSH2 0x222A JUMP JUMPDEST PUSH1 0xD DUP2 MSTORE PUSH1 0x20 DUP2 ADD PUSH13 0x105B1C9958591E481D9BDD1959 PUSH1 0x9A SHL DUP2 MSTORE SWAP1 POP PUSH2 0x1B56 JUMP JUMPDEST PUSH1 0x20 DUP1 DUP3 MSTORE DUP2 ADD PUSH2 0x87A DUP2 PUSH2 0x2262 JUMP JUMPDEST PUSH1 0x26 DUP2 MSTORE PUSH1 0x20 DUP2 ADD PUSH32 0x43616E6E6F7420766F7465207768696C652064656C65676174696F6E20697320 DUP2 MSTORE PUSH6 0x616374697665 PUSH1 0xD0 SHL PUSH1 0x20 DUP3 ADD MSTORE SWAP1 POP JUMPDEST PUSH1 0x40 ADD SWAP1 JUMP JUMPDEST PUSH1 0x20 DUP1 DUP3 MSTORE DUP2 ADD PUSH2 0x87A DUP2 PUSH2 0x2294 JUMP JUMPDEST PUSH1 0xF DUP2 MSTORE PUSH1 0x20 DUP2 ADD PUSH15 0x2737903B37BA34B733903837BBB2B9 PUSH1 0x89 SHL DUP2 MSTORE SWAP1 POP PUSH2 0x1B56 JUMP JUMPDEST PUSH1 0x20 DUP1 DUP3 MSTORE DUP2 ADD PUSH2 0x87A DUP2 PUSH2 0x22E7 JUMP JUMPDEST PUSH1 0x0 PUSH2 0x87A DUP3 PUSH1 0x60 SHL SWAP1 JUMP JUMPDEST PUSH1 0x0 PUSH2 0x87A DUP3 PUSH2 0x231B JUMP JUMPDEST PUSH2 0x16D5 PUSH2 0x233E DUP3 PUSH2 0x179E JUMP JUMPDEST PUSH2 0x2327 JUMP JUMPDEST PUSH2 0x234D DUP2 DUP6 PUSH2 0x1FC0 JUMP JUMPDEST PUSH1 0x20 ADD PUSH2 0x235A DUP2 DUP5 PUSH2 0x2332 JUMP JUMPDEST PUSH1 0x14 ADD PUSH2 0x2367 DUP2 DUP4 PUSH2 0x1FC0 JUMP JUMPDEST PUSH1 0x20 ADD SWAP4 SWAP3 POP POP POP JUMP JUMPDEST PUSH2 0x237B DUP2 DUP7 PUSH2 0x1FC0 JUMP JUMPDEST PUSH1 0x20 ADD PUSH2 0x2388 DUP2 DUP6 PUSH2 0x2332 JUMP JUMPDEST PUSH1 0x14 ADD PUSH2 0x2395 DUP2 DUP5 PUSH2 0x1FC0 JUMP JUMPDEST PUSH1 0x20 ADD PUSH2 0x23A2 DUP2 DUP4 PUSH2 0x1FC0 JUMP JUMPDEST PUSH1 0x20 ADD SWAP5 SWAP4 POP POP POP POP JUMP JUMPDEST PUSH1 0x40 DUP2 ADD PUSH2 0x177C DUP3 DUP6 PUSH2 0x16DB JUMP JUMPDEST PUSH1 0x1C DUP2 MSTORE PUSH1 0x20 DUP2 ADD PUSH32 0x44656372797074696F6E20616C72656164792072657175657374656400000000 DUP2 MSTORE SWAP1 POP PUSH2 0x1B56 JUMP JUMPDEST PUSH1 0x20 DUP1 DUP3 MSTORE DUP2 ADD PUSH2 0x87A DUP2 PUSH2 0x23BB JUMP JUMPDEST PUSH2 0x2407 DUP2 DUP6 PUSH2 0x1FC0 JUMP JUMPDEST PUSH1 0x20 ADD PUSH2 0x2414 DUP2 DUP5 PUSH2 0x1FC0 JUMP JUMPDEST PUSH1 0x20 ADD PUSH2 0x2421 DUP2 DUP4 PUSH2 0x2332 JUMP JUMPDEST PUSH1 0x14 ADD SWAP4 SWAP3 POP POP POP JUMP JUMPDEST PUSH1 0x14 DUP2 MSTORE PUSH1 0x20 DUP2 ADD PUSH20 0x27379030B1BA34BB32903232B632B3B0BA34B7B7 PUSH1 0x61 SHL DUP2 MSTORE SWAP1 POP PUSH2 0x1B56 JUMP JUMPDEST PUSH1 0x20 DUP1 DUP3 MSTORE DUP2 ADD PUSH2 0x87A DUP2 PUSH2 0x242B JUMP JUMPDEST PUSH1 0x18 DUP2 MSTORE PUSH1 0x20 DUP2 ADD PUSH32 0x496E76616C69642064656C656761746520616464726573730000000000000000 DUP2 MSTORE SWAP1 POP PUSH2 0x1B56 JUMP JUMPDEST PUSH1 0x20 DUP1 DUP3 MSTORE DUP2 ADD PUSH2 0x87A DUP2 PUSH2 0x2464 JUMP JUMPDEST PUSH1 0x1B DUP2 MSTORE PUSH1 0x20 DUP2 ADD PUSH32 0x43616E6E6F742064656C656761746520746F20796F757273656C660000000000 DUP2 MSTORE SWAP1 POP PUSH2 0x1B56 JUMP JUMPDEST PUSH1 0x20 DUP1 DUP3 MSTORE DUP2 ADD PUSH2 0x87A DUP2 PUSH2 0x24A6 JUMP JUMPDEST PUSH1 0x21 DUP2 MSTORE PUSH1 0x20 DUP2 ADD PUSH32 0x44656C6567617465206D757374206265207265676973746572656420766F7465 DUP2 MSTORE PUSH1 0x39 PUSH1 0xF9 SHL PUSH1 0x20 DUP3 ADD MSTORE SWAP1 POP PUSH2 0x22D1 JUMP JUMPDEST PUSH1 0x20 DUP1 DUP3 MSTORE DUP2 ADD PUSH2 0x87A DUP2 PUSH2 0x24E8 JUMP JUMPDEST PUSH1 0x1B DUP2 MSTORE PUSH1 0x20 DUP2 ADD PUSH32 0x4E6F20766F74696E6720706F77657220746F2064656C65676174650000000000 DUP2 MSTORE SWAP1 POP PUSH2 0x1B56 JUMP JUMPDEST PUSH1 0x20 DUP1 DUP3 MSTORE DUP2 ADD PUSH2 0x87A DUP2 PUSH2 0x2534 JUMP JUMPDEST PUSH1 0x17 DUP2 MSTORE PUSH1 0x20 DUP2 ADD PUSH32 0x44656C656761746520706F776572206F766572666C6F77000000000000000000 DUP2 MSTORE SWAP1 POP PUSH2 0x1B56 JUMP JUMPDEST PUSH1 0x20 DUP1 DUP3 MSTORE DUP2 ADD PUSH2 0x87A DUP2 PUSH2 0x2576 JUMP JUMPDEST PUSH1 0x18 DUP2 MSTORE PUSH1 0x20 DUP2 ADD PUSH32 0x44656C656761746520706F77657220756E646572666C6F770000000000000000 DUP2 MSTORE SWAP1 POP PUSH2 0x1B56 JUMP JUMPDEST PUSH1 0x20 DUP1 DUP3 MSTORE DUP2 ADD PUSH2 0x87A DUP2 PUSH2 0x25B8 JUMP JUMPDEST DUP2 DUP2 SUB DUP2 DUP2 GT ISZERO PUSH2 0x87A JUMPI PUSH2 0x87A PUSH2 0x1E21 JUMP INVALID LOG2 PUSH5 0x6970667358 0x22 SLT KECCAK256 PUSH9 0x4A773290116C1401A5 EQ DUP14 BASEFEE PUSH26 0xCA36B7F45DC1F175B0F37C2B1603A4B0BCBB64736F6C63430008 EQ STOP CALLER "},"methodIdentifiers":{"DECRYPTION_TIMEOUT()":"6e30bc9e","MAX_VOTING_POWER()":"152439db","VOTING_PERIOD()":"b1610d7e","claimRefund(uint256)":"5b7baf64","closeProposal(uint256)":"0386a016","createProposal(string)":"49c2a1a6","decryptionCallback(uint256,uint256,uint256,bytes)":"4093cebb","delegateVote(address)":"b31e1d4d","delegations(address)":"bffe3486","getDecryptionStatus(uint256)":"bea81fa9","getDelegation(address)":"2b293768","getEncryptedVotes(uint256)":"0f010058","getProposal(uint256)":"c7f758a8","getProposalResults(uint256,bytes32,bytes)":"ef3cf0e9","hasVoted(uint256,address)":"43859632","isRegisteredVoter(address)":"da36cffe","markDecryptionFailed(uint256)":"644ddbfc","owner()":"8da5cb5b","proposalCount()":"da35c664","proposals(uint256)":"013cf08b","registerVoter(address)":"38db6dd3","renounceOwnership()":"715018a6","requestDecryption(uint256)":"82e89197","revokeDelegation()":"a4d31805","transferOwnership(address)":"f2fde38b","vote(uint256,bool,bytes)":"7097e18e","votingPower(address)":"c07473f6"}}}}}