{
  "_format": "hh-sol-artifact-1",
  "contractName": "ProxyVotingFHE",
  "sourceName": "contracts/ProxyVotingFHE.sol",
  "abi": [
    {
      "inputs": [],
      "stateMutability": "nonpayable",
      "type": "constructor"
    },
    {
      "inputs": [
        {
          "internalType": "address",
          "name": "owner",
          "type": "address"
        }
      ],
      "name": "OwnableInvalidOwner",
      "type": "error"
    },
    {
      "inputs": [
        {
          "internalType": "address",
          "name": "account",
          "type": "address"
        }
      ],
      "name": "OwnableUnauthorizedAccount",
      "type": "error"
    },
    {
      "inputs": [],
      "name": "ReentrancyGuardReentrantCall",
      "type": "error"
    },
    {
      "anonymous": false,
      "inputs": [
        {
          "indexed": true,
          "internalType": "uint256",
          "name": "proposalId",
          "type": "uint256"
        },
        {
          "indexed": true,
          "internalType": "uint256",
          "name": "requestId",
          "type": "uint256"
        },
        {
          "indexed": false,
          "internalType": "uint256",
          "name": "yesVotes",
          "type": "uint256"
        },
        {
          "indexed": false,
          "internalType": "uint256",
          "name": "noVotes",
          "type": "uint256"
        }
      ],
      "name": "DecryptionCompleted",
      "type": "event"
    },
    {
      "anonymous": false,
      "inputs": [
        {
          "indexed": true,
          "internalType": "uint256",
          "name": "proposalId",
          "type": "uint256"
        },
        {
          "indexed": true,
          "internalType": "uint256",
          "name": "requestId",
          "type": "uint256"
        },
        {
          "indexed": false,
          "internalType": "string",
          "name": "reason",
          "type": "string"
        }
      ],
      "name": "DecryptionFailed",
      "type": "event"
    },
    {
      "anonymous": false,
      "inputs": [
        {
          "indexed": true,
          "internalType": "uint256",
          "name": "proposalId",
          "type": "uint256"
        },
        {
          "indexed": true,
          "internalType": "uint256",
          "name": "requestId",
          "type": "uint256"
        },
        {
          "indexed": false,
          "internalType": "uint256",
          "name": "timestamp",
          "type": "uint256"
        }
      ],
      "name": "DecryptionRequested",
      "type": "event"
    },
    {
      "anonymous": false,
      "inputs": [
        {
          "indexed": true,
          "internalType": "address",
          "name": "delegator",
          "type": "address"
        },
        {
          "indexed": false,
          "internalType": "uint256",
          "name": "weight",
          "type": "uint256"
        }
      ],
      "name": "DelegationRevoked",
      "type": "event"
    },
    {
      "anonymous": false,
      "inputs": [
        {
          "indexed": true,
          "internalType": "address",
          "name": "delegator",
          "type": "address"
        },
        {
          "indexed": true,
          "internalType": "address",
          "name": "delegate",
          "type": "address"
        },
        {
          "indexed": false,
          "internalType": "uint256",
          "name": "weight",
          "type": "uint256"
        }
      ],
      "name": "DelegationSet",
      "type": "event"
    },
    {
      "anonymous": false,
      "inputs": [
        {
          "indexed": true,
          "internalType": "address",
          "name": "previousOwner",
          "type": "address"
        },
        {
          "indexed": true,
          "internalType": "address",
          "name": "newOwner",
          "type": "address"
        }
      ],
      "name": "OwnershipTransferred",
      "type": "event"
    },
    {
      "anonymous": false,
      "inputs": [
        {
          "indexed": true,
          "internalType": "uint256",
          "name": "proposalId",
          "type": "uint256"
        },
        {
          "indexed": false,
          "internalType": "string",
          "name": "description",
          "type": "string"
        },
        {
          "indexed": false,
          "internalType": "uint256",
          "name": "deadline",
          "type": "uint256"
        }
      ],
      "name": "ProposalCreated",
      "type": "event"
    },
    {
      "anonymous": false,
      "inputs": [
        {
          "indexed": true,
          "internalType": "uint256",
          "name": "proposalId",
          "type": "uint256"
        },
        {
          "indexed": true,
          "internalType": "address",
          "name": "voter",
          "type": "address"
        },
        {
          "indexed": false,
          "internalType": "uint256",
          "name": "amount",
          "type": "uint256"
        }
      ],
      "name": "RefundIssued",
      "type": "event"
    },
    {
      "anonymous": false,
      "inputs": [
        {
          "indexed": true,
          "internalType": "uint256",
          "name": "proposalId",
          "type": "uint256"
        },
        {
          "indexed": true,
          "internalType": "address",
          "name": "voter",
          "type": "address"
        },
        {
          "indexed": false,
          "internalType": "bool",
          "name": "isYes",
          "type": "bool"
        },
        {
          "indexed": false,
          "internalType": "uint256",
          "name": "weight",
          "type": "uint256"
        }
      ],
      "name": "VoteCast",
      "type": "event"
    },
    {
      "anonymous": false,
      "inputs": [
        {
          "indexed": true,
          "internalType": "address",
          "name": "voter",
          "type": "address"
        },
        {
          "indexed": false,
          "internalType": "uint256",
          "name": "votingPower",
          "type": "uint256"
        }
      ],
      "name": "VoterRegistered",
      "type": "event"
    },
    {
      "inputs": [],
      "name": "DECRYPTION_TIMEOUT",
      "outputs": [
        {
          "internalType": "uint256",
          "name": "",
          "type": "uint256"
        }
      ],
      "stateMutability": "view",
      "type": "function"
    },
    {
      "inputs": [],
      "name": "MAX_VOTING_POWER",
      "outputs": [
        {
          "internalType": "uint256",
          "name": "",
          "type": "uint256"
        }
      ],
      "stateMutability": "view",
      "type": "function"
    },
    {
      "inputs": [],
      "name": "VOTING_PERIOD",
      "outputs": [
        {
          "internalType": "uint256",
          "name": "",
          "type": "uint256"
        }
      ],
      "stateMutability": "view",
      "type": "function"
    },
    {
      "inputs": [
        {
          "internalType": "uint256",
          "name": "proposalId",
          "type": "uint256"
        }
      ],
      "name": "claimRefund",
      "outputs": [],
      "stateMutability": "nonpayable",
      "type": "function"
    },
    {
      "inputs": [
        {
          "internalType": "uint256",
          "name": "proposalId",
          "type": "uint256"
        }
      ],
      "name": "closeProposal",
      "outputs": [],
      "stateMutability": "nonpayable",
      "type": "function"
    },
    {
      "inputs": [
        {
          "internalType": "string",
          "name": "description",
          "type": "string"
        }
      ],
      "name": "createProposal",
      "outputs": [
        {
          "internalType": "uint256",
          "name": "",
          "type": "uint256"
        }
      ],
      "stateMutability": "nonpayable",
      "type": "function"
    },
    {
      "inputs": [
        {
          "internalType": "uint256",
          "name": "requestId",
          "type": "uint256"
        },
        {
          "internalType": "uint256",
          "name": "yesVotes",
          "type": "uint256"
        },
        {
          "internalType": "uint256",
          "name": "noVotes",
          "type": "uint256"
        },
        {
          "internalType": "bytes",
          "name": "",
          "type": "bytes"
        }
      ],
      "name": "decryptionCallback",
      "outputs": [],
      "stateMutability": "nonpayable",
      "type": "function"
    },
    {
      "inputs": [
        {
          "internalType": "address",
          "name": "delegate",
          "type": "address"
        }
      ],
      "name": "delegateVote",
      "outputs": [],
      "stateMutability": "nonpayable",
      "type": "function"
    },
    {
      "inputs": [
        {
          "internalType": "address",
          "name": "",
          "type": "address"
        }
      ],
      "name": "delegations",
      "outputs": [
        {
          "internalType": "address",
          "name": "delegate",
          "type": "address"
        },
        {
          "internalType": "bool",
          "name": "active",
          "type": "bool"
        },
        {
          "internalType": "uint256",
          "name": "weight",
          "type": "uint256"
        }
      ],
      "stateMutability": "view",
      "type": "function"
    },
    {
      "inputs": [
        {
          "internalType": "uint256",
          "name": "proposalId",
          "type": "uint256"
        }
      ],
      "name": "getDecryptionStatus",
      "outputs": [
        {
          "internalType": "bool",
          "name": "requested",
          "type": "bool"
        },
        {
          "internalType": "bool",
          "name": "failed",
          "type": "bool"
        },
        {
          "internalType": "uint256",
          "name": "requestTime",
          "type": "uint256"
        },
        {
          "internalType": "uint256",
          "name": "requestId",
          "type": "uint256"
        }
      ],
      "stateMutability": "view",
      "type": "function"
    },
    {
      "inputs": [
        {
          "internalType": "address",
          "name": "voter",
          "type": "address"
        }
      ],
      "name": "getDelegation",
      "outputs": [
        {
          "internalType": "address",
          "name": "delegate",
          "type": "address"
        },
        {
          "internalType": "bool",
          "name": "active",
          "type": "bool"
        }
      ],
      "stateMutability": "view",
      "type": "function"
    },
    {
      "inputs": [
        {
          "internalType": "uint256",
          "name": "proposalId",
          "type": "uint256"
        }
      ],
      "name": "getEncryptedVotes",
      "outputs": [
        {
          "internalType": "bytes32",
          "name": "encryptedYes",
          "type": "bytes32"
        },
        {
          "internalType": "bytes32",
          "name": "encryptedNo",
          "type": "bytes32"
        }
      ],
      "stateMutability": "view",
      "type": "function"
    },
    {
      "inputs": [
        {
          "internalType": "uint256",
          "name": "proposalId",
          "type": "uint256"
        }
      ],
      "name": "getProposal",
      "outputs": [
        {
          "internalType": "string",
          "name": "description",
          "type": "string"
        },
        {
          "internalType": "uint256",
          "name": "deadline",
          "type": "uint256"
        },
        {
          "internalType": "bool",
          "name": "active",
          "type": "bool"
        }
      ],
      "stateMutability": "view",
      "type": "function"
    },
    {
      "inputs": [
        {
          "internalType": "uint256",
          "name": "proposalId",
          "type": "uint256"
        },
        {
          "internalType": "bytes32",
          "name": "",
          "type": "bytes32"
        },
        {
          "internalType": "bytes",
          "name": "",
          "type": "bytes"
        }
      ],
      "name": "getProposalResults",
      "outputs": [
        {
          "internalType": "uint32",
          "name": "yesVotes",
          "type": "uint32"
        },
        {
          "internalType": "uint32",
          "name": "noVotes",
          "type": "uint32"
        }
      ],
      "stateMutability": "view",
      "type": "function"
    },
    {
      "inputs": [
        {
          "internalType": "uint256",
          "name": "proposalId",
          "type": "uint256"
        },
        {
          "internalType": "address",
          "name": "voter",
          "type": "address"
        }
      ],
      "name": "hasVoted",
      "outputs": [
        {
          "internalType": "bool",
          "name": "",
          "type": "bool"
        }
      ],
      "stateMutability": "view",
      "type": "function"
    },
    {
      "inputs": [
        {
          "internalType": "address",
          "name": "",
          "type": "address"
        }
      ],
      "name": "isRegisteredVoter",
      "outputs": [
        {
          "internalType": "bool",
          "name": "",
          "type": "bool"
        }
      ],
      "stateMutability": "view",
      "type": "function"
    },
    {
      "inputs": [
        {
          "internalType": "uint256",
          "name": "proposalId",
          "type": "uint256"
        }
      ],
      "name": "markDecryptionFailed",
      "outputs": [],
      "stateMutability": "nonpayable",
      "type": "function"
    },
    {
      "inputs": [],
      "name": "owner",
      "outputs": [
        {
          "internalType": "address",
          "name": "",
          "type": "address"
        }
      ],
      "stateMutability": "view",
      "type": "function"
    },
    {
      "inputs": [],
      "name": "proposalCount",
      "outputs": [
        {
          "internalType": "uint256",
          "name": "",
          "type": "uint256"
        }
      ],
      "stateMutability": "view",
      "type": "function"
    },
    {
      "inputs": [
        {
          "internalType": "uint256",
          "name": "",
          "type": "uint256"
        }
      ],
      "name": "proposals",
      "outputs": [
        {
          "internalType": "string",
          "name": "description",
          "type": "string"
        },
        {
          "internalType": "bytes32",
          "name": "encryptedYesVotes",
          "type": "bytes32"
        },
        {
          "internalType": "bytes32",
          "name": "encryptedNoVotes",
          "type": "bytes32"
        },
        {
          "internalType": "uint256",
          "name": "deadline",
          "type": "uint256"
        },
        {
          "internalType": "bool",
          "name": "active",
          "type": "bool"
        },
        {
          "internalType": "bool",
          "name": "decryptionRequested",
          "type": "bool"
        },
        {
          "internalType": "bool",
          "name": "decryptionFailed",
          "type": "bool"
        },
        {
          "internalType": "uint256",
          "name": "decryptionRequestTime",
          "type": "uint256"
        },
        {
          "internalType": "uint256",
          "name": "decryptionRequestId",
          "type": "uint256"
        }
      ],
      "stateMutability": "view",
      "type": "function"
    },
    {
      "inputs": [
        {
          "internalType": "address",
          "name": "voter",
          "type": "address"
        }
      ],
      "name": "registerVoter",
      "outputs": [],
      "stateMutability": "nonpayable",
      "type": "function"
    },
    {
      "inputs": [],
      "name": "renounceOwnership",
      "outputs": [],
      "stateMutability": "nonpayable",
      "type": "function"
    },
    {
      "inputs": [
        {
          "internalType": "uint256",
          "name": "proposalId",
          "type": "uint256"
        }
      ],
      "name": "requestDecryption",
      "outputs": [
        {
          "internalType": "uint256",
          "name": "requestId",
          "type": "uint256"
        }
      ],
      "stateMutability": "nonpayable",
      "type": "function"
    },
    {
      "inputs": [],
      "name": "revokeDelegation",
      "outputs": [],
      "stateMutability": "nonpayable",
      "type": "function"
    },
    {
      "inputs": [
        {
          "internalType": "address",
          "name": "newOwner",
          "type": "address"
        }
      ],
      "name": "transferOwnership",
      "outputs": [],
      "stateMutability": "nonpayable",
      "type": "function"
    },
    {
      "inputs": [
        {
          "internalType": "uint256",
          "name": "proposalId",
          "type": "uint256"
        },
        {
          "internalType": "bool",
          "name": "isYes",
          "type": "bool"
        },
        {
          "internalType": "bytes",
          "name": "",
          "type": "bytes"
        }
      ],
      "name": "vote",
      "outputs": [],
      "stateMutability": "nonpayable",
      "type": "function"
    },
    {
      "inputs": [
        {
          "internalType": "address",
          "name": "",
          "type": "address"
        }
      ],
      "name": "votingPower",
      "outputs": [
        {
          "internalType": "uint256",
          "name": "",
          "type": "uint256"
        }
      ],
      "stateMutability": "view",
      "type": "function"
    }
  ],
  "bytecode": "0x60806040523480156200001157600080fd5b50338062000040576000604051631e4fbdf760e01b8152600401620000379190620000f2565b60405180910390fd5b6200004b816200007e565b50600180805533600090815260046020908152604080832084905560059091529020805460ff1916909117905562000102565b600080546001600160a01b038381166001600160a01b0319831681178455604051919092169283917f8be0079c531659141344cd1fd0a4f28419497f9722a3daafe3b4186f6b6457e09190a35050565b60006001600160a01b0382165b92915050565b620000ec81620000ce565b82525050565b60208101620000db8284620000e1565b61264380620001126000396000f3fe608060405234801561001057600080fd5b50600436106101a95760003560e01c8063715018a6116100f9578063bffe348611610097578063da35c66411610071578063da35c6641461041e578063da36cffe14610427578063ef3cf0e91461044a578063f2fde38b1461046b57600080fd5b8063bffe348614610390578063c07473f6146103dc578063c7f758a8146103fc57600080fd5b8063a4d31805116100d3578063a4d3180514610348578063b1610d7e14610350578063b31e1d4d1461035a578063bea81fa91461036d57600080fd5b8063715018a61461031457806382e891971461031c5780638da5cb5b1461032f57600080fd5b80634093cebb116101665780635b7baf64116101405780635b7baf64146102d1578063644ddbfc146102e45780636e30bc9e146102f75780637097e18e1461030157600080fd5b80634093cebb1461028b578063438596321461029e57806349c2a1a6146102be57600080fd5b8063013cf08b146101ae5780630386a016146101df5780630f010058146101f4578063152439db146102155780632b2937681461023057806338db6dd314610278575b600080fd5b6101c16101bc366004611654565b61047e565b6040516101d6999897969594939291906116e3565b60405180910390f35b6101f26101ed366004611654565b61055a565b005b610207610202366004611654565b6105d7565b6040516101d692919061176e565b6102236001600160801b0381565b6040516101d69190611790565b61026a61023e3660046117c3565b6001600160a01b0390811660009081526003602052604090205490811691600160a01b90910460ff1690565b6040516101d69291906117ed565b6101f26102863660046117c3565b61061a565b6101f261029936600461185a565b6106ee565b6102b16102ac3660046118de565b610850565b6040516101d6919061191b565b6102236102cc366004611929565b610880565b6101f26102df366004611654565b6109f1565b6101f26102f2366004611654565b610ae1565b6102236201518081565b6101f261030f366004611984565b610c17565b6101f2610edb565b61022361032a366004611654565b610eef565b6000546001600160a01b03166040516101d691906119f2565b6101f261102c565b61022362093a8081565b6101f26103683660046117c3565b6110e7565b61038061037b366004611654565b6112e9565b6040516101d69493929190611a00565b6103cd61039e3660046117c3565b600360205260009081526040902080546001909101546001600160a01b03821691600160a01b900460ff169083565b6040516101d693929190611a3e565b6102236103ea3660046117c3565b60046020526000908152604090205481565b61040f61040a366004611654565b611348565b6040516101d693929190611a66565b61022360075481565b6102b16104353660046117c3565b60056020526000908152604090205460ff1681565b61045d610458366004611a93565b611428565b6040516101d6929190611ad5565b6101f26104793660046117c3565b6114a8565b60026020526000908152604090208054819061049990611b06565b80601f01602080910402602001604051908101604052809291908181526020018280546104c590611b06565b80156105125780601f106104e757610100808354040283529160200191610512565b820191906000526020600020905b8154815290600101906020018083116104f557829003601f168201915b505050600184015460028501546003860154600487015460058801546006909801549697939692955090935060ff808216936101008304821693620100009093049091169189565b6105626114e3565b600754811061058c5760405162461bcd60e51b815260040161058390611b5c565b60405180910390fd5b60008181526002602052604090206003015442116105bc5760405162461bcd60e51b815260040161058390611b94565b6000908152600260205260409020600401805460ff19169055565b60008060075483106105fb5760405162461bcd60e51b815260040161058390611b5c565b5050600090815260026020819052604090912060018101549101549091565b6106226114e3565b6001600160a01b0381166106485760405162461bcd60e51b815260040161058390611bce565b6001600160a01b03811660009081526005602052604090205460ff16156106815760405162461bcd60e51b815260040161058390611c10565b6001600160a01b0381166000818152600560209081526040808320805460ff1916600190811790915560049092529182902081905590517ff16ce2c2236e2c6e3df646f80d657bceef4cd7f3a240c47e82adfa17a5f47241916106e391611c38565b60405180910390a250565b600085815260066020526040902054600754811061071e5760405162461bcd60e51b815260040161058390611c6d565b60008181526002602052604090206004810154610100900460ff166107555760405162461bcd60e51b815260040161058390611caf565b868160060154146107785760405162461bcd60e51b815260040161058390611ce7565b600481015462010000900460ff16156107a35760405162461bcd60e51b815260040161058390611d29565b60008281526008602052604090205486146107d05760405162461bcd60e51b815260040161058390611d60565b60008281526009602052604090205485146107fd5760405162461bcd60e51b815260040161058390611d96565b60048101805460ff19169055604051879083907f60a5261a8de6f00d7bf40f51cf2b023425bc668db5e9bc89db8c104706efbc319061083f908a908a9061176e565b60405180910390a350505050505050565b60008281526002602090815260408083206001600160a01b038516845260070190915290205460ff165b92915050565b600061088a6114e3565b816108a75760405162461bcd60e51b815260040161058390611dd8565b6104008211156108c95760405162461bcd60e51b815260040161058390611e11565b60078054600091826108da83611e37565b909155506000818152600260205260409020909150806108fb858783611efb565b50814260405160200161090f929190611fc6565b60408051601f19818403018152908290528051602091820120600184015561093b918491429101612001565b60408051601f198184030181529190528051602090910120600282015561096562093a804261201d565b6003820190815560048201805462ffffff19166001179055600060058301819055600683018190558381526008602090815260408083208390556009909152808220919091559054905183917ff5dc0da9afa6d080780a49fd8c680f03d2ddf3c067cd6d0c85360c096644d2d3916109e191899189919061205c565b60405180910390a2509392505050565b6109f9611510565b6007548110610a1a5760405162461bcd60e51b815260040161058390611b5c565b6000818152600260205260409020600481015462010000900460ff16610a525760405162461bcd60e51b8152600401610583906120a7565b33600090815260078201602052604090205460ff16610a835760405162461bcd60e51b8152600401610583906120e9565b336000818152600783016020526040808220805460ff191690555184917f7a482fdeb6bc9a1376f597068a214a7a39472bb2eff1b8cad21ba04f49ddca1b91610acc9190611c38565b60405180910390a350610ade60018055565b50565b6007548110610b025760405162461bcd60e51b815260040161058390611b5c565b60008181526002602052604090206004810154610100900460ff16610b395760405162461bcd60e51b815260040161058390611caf565b600481015460ff1615610b5e5760405162461bcd60e51b815260040161058390612123565b6000620151808260050154610b73919061201d565b4210159050610b8a6000546001600160a01b031690565b6001600160a01b0316336001600160a01b03161480610ba65750805b610bc25760405162461bcd60e51b815260040161058390612165565b60048201805462ff0000191662010000179055600682015460405184907f8b2808dbe440ff36b9c3f43dfca588a3ffeb2af2ef2d67aad297f32284ad4c0e90610c0a906121a7565b60405180910390a3505050565b3360009081526005602052604090205460ff16610c465760405162461bcd60e51b8152600401610583906121e2565b836007548110610c685760405162461bcd60e51b815260040161058390611b5c565b60008181526002602052604090206004015460ff16610c995760405162461bcd60e51b81526004016105839061221a565b600081815260026020526040902060030154421115610cca5760405162461bcd60e51b815260040161058390612252565b600085815260026020908152604080832033845260070190915290205460ff1615610d075760405162461bcd60e51b815260040161058390612284565b33600090815260036020526040902054600160a01b900460ff1615610d3e5760405162461bcd60e51b8152600401610583906122d7565b60008581526002602090815260408083203384526007018252808320805460ff19166001179055600490915290205480610d8a5760405162461bcd60e51b81526004016105839061230b565b60008681526002602090815260408083209051909291610db091429133918c9101612343565b6040516020818303038152906040528051906020012060001c90508615610e315760008881526008602052604081208054859290610def90849061201d565b90915550506001820154604051610e0f9190339086908590602001612371565b60408051601f1981840301815291905280516020909101206001830155610e8d565b60008881526009602052604081208054859290610e4f90849061201d565b90915550506002820154604051610e6f9190339086908590602001612371565b60408051601f19818403018152919052805160209091012060028301555b336001600160a01b0316887fcbdf6214089cba887ecbf35a0b6a734589959c9763342c756bb2a80ca2bc9f6e8986604051610ec99291906123ad565b60405180910390a35050505050505050565b610ee36114e3565b610eed600061153a565b565b6000610ef96114e3565b6007548210610f1a5760405162461bcd60e51b815260040161058390611b5c565b6000828152600260205260409020600301544211610f4a5760405162461bcd60e51b815260040161058390611b94565b600082815260026020526040902060040154610100900460ff1615610f815760405162461bcd60e51b8152600401610583906123ed565b6000828152600260209081526040918290209151610fa591859142913391016123fd565b60408051601f19818403018152828252805160209182012060048501805461ff0019166101001790554260058601819055600680870183905560008381529352929091208690559350839185917f5e0bb1b708f1f76775812e0c51d4f8893968e6bf1a6776e92e97da11615342f39161101e9190611790565b60405180910390a350919050565b3360009081526005602052604090205460ff1661105b5760405162461bcd60e51b8152600401610583906121e2565b33600090815260036020526040902054600160a01b900460ff166110915760405162461bcd60e51b815260040161058390612454565b33600081815260036020526040902060010154906110ae9061158a565b336001600160a01b03167fb4dff15dd795ddc2a73efb1f0245539fe1a46b50cfd29f8c7bfe8f2f810877c8826040516106e39190611790565b3360009081526005602052604090205460ff166111165760405162461bcd60e51b8152600401610583906121e2565b6001600160a01b03811661113c5760405162461bcd60e51b815260040161058390612496565b336001600160a01b038216036111645760405162461bcd60e51b8152600401610583906124d8565b6001600160a01b03811660009081526005602052604090205460ff1661119c5760405162461bcd60e51b815260040161058390612524565b33600090815260046020526040902054806111c95760405162461bcd60e51b815260040161058390612566565b33600090815260036020526040902054600160a01b900460ff16156111f1576111f13361158a565b6001600160a01b03821660009081526004602052604081205461121590839061201d565b90506001600160801b0381111561123e5760405162461bcd60e51b8152600401610583906125a8565b604080516060810182526001600160a01b0380861680835260016020808501828152858701898152336000818152600385528981209851895494511515600160a01b026001600160a81b031990951698169790971792909217875551959092019490945581835260049093528382208590558282528382209190915591517f4c12853beeb24ebde5f5b6f8757d257670bd10e740c1d43baa60c5ed7090fa5890610c0a908690611790565b60008060008060075485106113105760405162461bcd60e51b815260040161058390611b5c565b5050506000918252506002602052604090206004810154600582015460069092015460ff610100830481169462010000909304169291565b6060600080600754841061136e5760405162461bcd60e51b815260040161058390611b5c565b600084815260026020526040902060038101546004820154825483929160ff1690839061139a90611b06565b80601f01602080910402602001604051908101604052809291908181526020018280546113c690611b06565b80156114135780601f106113e857610100808354040283529160200191611413565b820191906000526020600020905b8154815290600101906020018083116113f657829003601f168201915b50505050509250935093509350509193909250565b6000806114336114e3565b60075486106114545760405162461bcd60e51b815260040161058390611b5c565b60008681526002602052604090206003015442116114845760405162461bcd60e51b815260040161058390611b94565b50505060009283525050600860209081526040808320546009909252909120549091565b6114b06114e3565b6001600160a01b0381166114da576000604051631e4fbdf760e01b815260040161058391906119f2565b610ade8161153a565b6000546001600160a01b03163314610eed573360405163118cdaa760e01b815260040161058391906119f2565b60026001540361153357604051633ee5aeb560e01b815260040160405180910390fd5b6002600155565b600080546001600160a01b038381166001600160a01b0319831681178455604051919092169283917f8be0079c531659141344cd1fd0a4f28419497f9722a3daafe3b4186f6b6457e09190a35050565b6001600160a01b0380821660009081526003602090815260408083208054600182015495168085526004909352922054919290918111156115dd5760405162461bcd60e51b8152600401610583906125ea565b6001600160a01b038216600090815260046020526040812080548392906116059084906125fa565b90915550506001600160a01b039093166000908152600460205260408120939093555080546001600160a81b031916815560010155565b805b8114610ade57600080fd5b803561087a8161163c565b60006020828403121561166957611669600080fd5b60006116758484611649565b949350505050565b60005b83811015611698578181015183820152602001611680565b50506000910152565b60006116ab825190565b8084526020840193506116c281856020860161167d565b601f01601f19169290920192915050565b805b82525050565b8015156116d5565b61012080825281016116f5818c6116a1565b9050611704602083018b6116d3565b611711604083018a6116d3565b61171e60608301896116d3565b61172b60808301886116db565b61173860a08301876116db565b61174560c08301866116db565b61175260e08301856116d3565b6117606101008301846116d3565b9a9950505050505050505050565b6040810161177c82856116d3565b61178960208301846116d3565b9392505050565b6020810161087a82846116d3565b60006001600160a01b03821661087a565b61163e8161179e565b803561087a816117af565b6000602082840312156117d8576117d8600080fd5b600061167584846117b8565b6116d58161179e565b604081016117fb82856117e4565b61178960208301846116db565b60008083601f84011261181d5761181d600080fd5b50813567ffffffffffffffff81111561183857611838600080fd5b60208301915083600182028301111561185357611853600080fd5b9250929050565b60008060008060006080868803121561187557611875600080fd5b60006118818888611649565b955050602061189288828901611649565b94505060406118a388828901611649565b935050606086013567ffffffffffffffff8111156118c3576118c3600080fd5b6118cf88828901611808565b92509250509295509295909350565b600080604083850312156118f4576118f4600080fd5b60006119008585611649565b9250506020611911858286016117b8565b9150509250929050565b6020810161087a82846116db565b6000806020838503121561193f5761193f600080fd5b823567ffffffffffffffff81111561195957611959600080fd5b61196585828601611808565b92509250509250929050565b80151561163e565b803561087a81611971565b6000806000806060858703121561199d5761199d600080fd5b60006119a98787611649565b94505060206119ba87828801611979565b935050604085013567ffffffffffffffff8111156119da576119da600080fd5b6119e687828801611808565b95989497509550505050565b6020810161087a82846117e4565b60808101611a0e82876116db565b611a1b60208301866116db565b611a2860408301856116d3565b611a3560608301846116d3565b95945050505050565b60608101611a4c82866117e4565b611a5960208301856116db565b61167560408301846116d3565b60608082528101611a7781866116a1565b9050611a8660208301856116d3565b61167560408301846116db565b60008060008060608587031215611aac57611aac600080fd5b6000611ab88787611649565b94505060206119ba87828801611649565b63ffffffff81166116d5565b60408101611ae38285611ac9565b6117896020830184611ac9565b634e487b7160e01b600052602260045260246000fd5b600281046001821680611b1a57607f821691505b602082108103611b2c57611b2c611af0565b50919050565b601381526020810172125b9d985b1a59081c1c9bdc1bdcd85b081251606a1b815290505b60200190565b6020808252810161087a81611b32565b601381526020810172566f74696e67207374696c6c2061637469766560681b81529050611b56565b6020808252810161087a81611b6c565b601581526020810174496e76616c696420766f746572206164647265737360581b81529050611b56565b6020808252810161087a81611ba4565b60188152602081017f566f74657220616c72656164792072656769737465726564000000000000000081529050611b56565b6020808252810161087a81611bde565b600061087a611c2c8381565b90565b6116d581611c20565b6020810161087a8284611c2f565b601281526020810171125b9d985b1a59081c995c5d595cdd08125160721b81529050611b56565b6020808252810161087a81611c46565b60178152602081017f4e6f2064656372797074696f6e2072657175657374656400000000000000000081529050611b56565b6020808252810161087a81611c7d565b6013815260208101720a4cae2eacae6e840928840dad2e6dac2e8c6d606b1b81529050611b56565b6020808252810161087a81611cbf565b60198152602081017f44656372797074696f6e20616c7265616479206661696c65640000000000000081529050611b56565b6020808252810161087a81611cf7565b6012815260208101710b2cae640ecdee8cae640dad2e6dac2e8c6d60731b81529050611b56565b6020808252810161087a81611d39565b60118152602081017009cde40ecdee8cae640dad2e6dac2e8c6d607b1b81529050611b56565b6020808252810161087a81611d70565b601b8152602081017f4465736372697074696f6e2063616e6e6f7420626520656d707479000000000081529050611b56565b6020808252810161087a81611da6565b6014815260208101734465736372697074696f6e20746f6f206c6f6e6760601b81529050611b56565b6020808252810161087a81611de8565b634e487b7160e01b600052601160045260246000fd5b600060018201611e4957611e49611e21565b5060010190565b634e487b7160e01b600052604160045260246000fd5b611e6f83611c20565b815460001960089490940293841b1916921b91909117905550565b6000611e97818484611e66565b505050565b81811015611eb757611eaf600082611e8a565b600101611e9c565b5050565b601f821115611e97576000818152602090206020601f85010481016020851015611ee25750805b611ef46020601f860104830182611e9c565b5050505050565b8267ffffffffffffffff811115611f1457611f14611e50565b611f1e8254611b06565b611f29828285611ebb565b506000601f821160018114611f5e5760008315611f465750848201355b600019600885021c1981166002850217855550611fb8565b600084815260209020601f19841690835b82811015611f8f5787850135825560209485019460019092019101611f6f565b5084821015611fac57600019601f86166008021c19848801351681555b50506001600284020184555b505050505050565b806116d5565b6d656e637279707465645f7965735f60901b8152600e81015b9050611feb8184611fc0565b602001611ff88183611fc0565b60200192915050565b6c656e637279707465645f6e6f5f60981b8152600d8101611fdf565b8082018082111561087a5761087a611e21565b82818337506000910152565b818352602083019250612050828483612030565b50601f01601f19160190565b6040808252810161206e81858761203c565b905061167560208301846116d3565b601581526020810174111958dc9e5c1d1a5bdb881b9bdd0819985a5b1959605a1b81529050611b56565b6020808252810161087a8161207d565b601d8152602081017f446964206e6f7420766f7465206f6e20746869732070726f706f73616c00000081529050611b56565b6020808252810161087a816120b7565b60158152602081017450726f706f73616c207374696c6c2061637469766560581b81529050611b56565b6020808252810161087a816120f9565b601b8152602081017f4f6e6c79206f776e6572206f722061667465722074696d656f7574000000000081529050611b56565b6020808252810161087a81612133565b60198152602081017f54696d656f7574206f72206d616e75616c206661696c7572650000000000000081529050611b56565b6020808252810161087a81612175565b6016815260208101752737ba1030903932b3b4b9ba32b932b2103b37ba32b960511b81529050611b56565b6020808252810161087a816121b7565b60138152602081017250726f706f73616c206e6f742061637469766560681b81529050611b56565b6020808252810161087a816121f2565b601381526020810172159bdd1a5b99c81c195c9a5bd908195b991959606a1b81529050611b56565b6020808252810161087a8161222a565b600d8152602081016c105b1c9958591e481d9bdd1959609a1b81529050611b56565b6020808252810161087a81612262565b60268152602081017f43616e6e6f7420766f7465207768696c652064656c65676174696f6e2069732081526561637469766560d01b602082015290505b60400190565b6020808252810161087a81612294565b600f8152602081016e2737903b37ba34b733903837bbb2b960891b81529050611b56565b6020808252810161087a816122e7565b600061087a8260601b90565b600061087a8261231b565b6116d561233e8261179e565b612327565b61234d8185611fc0565b60200161235a8184612332565b6014016123678183611fc0565b6020019392505050565b61237b8186611fc0565b6020016123888185612332565b6014016123958184611fc0565b6020016123a28183611fc0565b602001949350505050565b6040810161177c82856116db565b601c8152602081017f44656372797074696f6e20616c7265616479207265717565737465640000000081529050611b56565b6020808252810161087a816123bb565b6124078185611fc0565b6020016124148184611fc0565b6020016124218183612332565b6014019392505050565b60148152602081017327379030b1ba34bb32903232b632b3b0ba34b7b760611b81529050611b56565b6020808252810161087a8161242b565b60188152602081017f496e76616c69642064656c65676174652061646472657373000000000000000081529050611b56565b6020808252810161087a81612464565b601b8152602081017f43616e6e6f742064656c656761746520746f20796f757273656c66000000000081529050611b56565b6020808252810161087a816124a6565b60218152602081017f44656c6567617465206d757374206265207265676973746572656420766f74658152603960f91b602082015290506122d1565b6020808252810161087a816124e8565b601b8152602081017f4e6f20766f74696e6720706f77657220746f2064656c6567617465000000000081529050611b56565b6020808252810161087a81612534565b60178152602081017f44656c656761746520706f776572206f766572666c6f7700000000000000000081529050611b56565b6020808252810161087a81612576565b60188152602081017f44656c656761746520706f77657220756e646572666c6f77000000000000000081529050611b56565b6020808252810161087a816125b8565b8181038181111561087a5761087a611e2156fea2646970667358221220684a773290116c1401a5148d4879ca36b7f45dc1f175b0f37c2b1603a4b0bcbb64736f6c63430008140033",
  "linkReferences": {},
  "deployedLinkReferences": {}
}